{
  "_format": "hh-sol-artifact-1",
  "contractName": "GameV3",
  "sourceName": "contracts/GameV3.sol",
  "abi": [
    {
      "inputs": [
        {
          "internalType": "address",
          "name": "_goldToken",
          "type": "address"
        },
        {
          "internalType": "address",
          "name": "_pickaxeNFT",
          "type": "address"
        },
        {
          "internalType": "address",
          "name": "_gemNFT",
          "type": "address"
        }
      ],
      "stateMutability": "nonpayable",
      "type": "constructor"
    },
    {
      "anonymous": false,
      "inputs": [
        {
          "indexed": true,
          "internalType": "address",
          "name": "player",
          "type": "address"
        },
        {
          "indexed": true,
          "internalType": "uint256",
          "name": "materialId",
          "type": "uint256"
        },
        {
          "indexed": false,
          "internalType": "string",
          "name": "materialName",
          "type": "string"
        }
      ],
      "name": "MaterialMined",
      "type": "event"
    },
    {
      "anonymous": false,
      "inputs": [
        {
          "indexed": true,
          "internalType": "address",
          "name": "player",
          "type": "address"
        },
        {
          "indexed": true,
          "internalType": "uint8",
          "name": "levelId",
          "type": "uint8"
        },
        {
          "indexed": false,
          "internalType": "uint256",
          "name": "endTime",
          "type": "uint256"
        }
      ],
      "name": "SessionEnded",
      "type": "event"
    },
    {
      "anonymous": false,
      "inputs": [
        {
          "indexed": true,
          "internalType": "address",
          "name": "player",
          "type": "address"
        },
        {
          "indexed": true,
          "internalType": "uint8",
          "name": "levelId",
          "type": "uint8"
        },
        {
          "indexed": false,
          "internalType": "uint16",
          "name": "numSeconds",
          "type": "uint16"
        },
        {
          "indexed": false,
          "internalType": "uint256",
          "name": "cost",
          "type": "uint256"
        },
        {
          "indexed": false,
          "internalType": "uint256",
          "name": "startTime",
          "type": "uint256"
        },
        {
          "indexed": false,
          "internalType": "uint256",
          "name": "endTime",
          "type": "uint256"
        }
      ],
      "name": "SessionStarted",
      "type": "event"
    },
    {
      "anonymous": false,
      "inputs": [
        {
          "indexed": true,
          "internalType": "address",
          "name": "player",
          "type": "address"
        },
        {
          "indexed": false,
          "internalType": "uint256[]",
          "name": "materialIds",
          "type": "uint256[]"
        },
        {
          "indexed": false,
          "internalType": "uint256[]",
          "name": "amounts",
          "type": "uint256[]"
        },
        {
          "indexed": false,
          "internalType": "uint256",
          "name": "goldEarned",
          "type": "uint256"
        },
        {
          "indexed": false,
          "internalType": "uint256",
          "name": "timestamp",
          "type": "uint256"
        }
      ],
      "name": "Sold",
      "type": "event"
    },
    {
      "inputs": [
        {
          "internalType": "address",
          "name": "",
          "type": "address"
        }
      ],
      "name": "activeSessions",
      "outputs": [
        {
          "internalType": "uint8",
          "name": "levelId",
          "type": "uint8"
        },
        {
          "internalType": "uint256",
          "name": "startTime",
          "type": "uint256"
        },
        {
          "internalType": "uint256",
          "name": "endTime",
          "type": "uint256"
        },
        {
          "internalType": "bool",
          "name": "active",
          "type": "bool"
        }
      ],
      "stateMutability": "view",
      "type": "function"
    },
    {
      "inputs": [
        {
          "internalType": "uint8",
          "name": "levelId",
          "type": "uint8"
        },
        {
          "internalType": "uint16",
          "name": "numSeconds",
          "type": "uint16"
        }
      ],
      "name": "calculateSessionCost",
      "outputs": [
        {
          "internalType": "uint256",
          "name": "",
          "type": "uint256"
        }
      ],
      "stateMutability": "view",
      "type": "function"
    },
    {
      "inputs": [
        {
          "internalType": "address",
          "name": "player",
          "type": "address"
        },
        {
          "internalType": "uint8",
          "name": "levelId",
          "type": "uint8"
        }
      ],
      "name": "canAccessLevel",
      "outputs": [
        {
          "internalType": "bool",
          "name": "canAccess",
          "type": "bool"
        }
      ],
      "stateMutability": "view",
      "type": "function"
    },
    {
      "inputs": [],
      "name": "endMiningSession",
      "outputs": [],
      "stateMutability": "nonpayable",
      "type": "function"
    },
    {
      "inputs": [],
      "name": "gemNFT",
      "outputs": [
        {
          "internalType": "contract GemNFT",
          "name": "",
          "type": "address"
        }
      ],
      "stateMutability": "view",
      "type": "function"
    },
    {
      "inputs": [
        {
          "internalType": "address",
          "name": "player",
          "type": "address"
        }
      ],
      "name": "getActiveSession",
      "outputs": [
        {
          "internalType": "uint8",
          "name": "levelId",
          "type": "uint8"
        },
        {
          "internalType": "uint256",
          "name": "startTime",
          "type": "uint256"
        },
        {
          "internalType": "uint256",
          "name": "endTime",
          "type": "uint256"
        },
        {
          "internalType": "bool",
          "name": "active",
          "type": "bool"
        }
      ],
      "stateMutability": "view",
      "type": "function"
    },
    {
      "inputs": [
        {
          "internalType": "uint8",
          "name": "levelId",
          "type": "uint8"
        }
      ],
      "name": "getLevelConfig",
      "outputs": [
        {
          "components": [
            {
              "internalType": "string",
              "name": "name",
              "type": "string"
            },
            {
              "internalType": "uint256",
              "name": "costPerSecond",
              "type": "uint256"
            },
            {
              "internalType": "enum PickaxeNFTV2.Tier",
              "name": "requiredTier",
              "type": "uint8"
            }
          ],
          "internalType": "struct GameV3.LevelConfig",
          "name": "",
          "type": "tuple"
        }
      ],
      "stateMutability": "view",
      "type": "function"
    },
    {
      "inputs": [
        {
          "internalType": "uint8",
          "name": "levelId",
          "type": "uint8"
        }
      ],
      "name": "getLevelCostPerSecond",
      "outputs": [
        {
          "internalType": "uint256",
          "name": "",
          "type": "uint256"
        }
      ],
      "stateMutability": "view",
      "type": "function"
    },
    {
      "inputs": [
        {
          "internalType": "uint256",
          "name": "materialId",
          "type": "uint256"
        }
      ],
      "name": "getMaterialName",
      "outputs": [
        {
          "internalType": "string",
          "name": "",
          "type": "string"
        }
      ],
      "stateMutability": "view",
      "type": "function"
    },
    {
      "inputs": [
        {
          "internalType": "uint256",
          "name": "materialId",
          "type": "uint256"
        }
      ],
      "name": "getMaterialValue",
      "outputs": [
        {
          "internalType": "uint256",
          "name": "",
          "type": "uint256"
        }
      ],
      "stateMutability": "view",
      "type": "function"
    },
    {
      "inputs": [
        {
          "internalType": "address",
          "name": "player",
          "type": "address"
        }
      ],
      "name": "getPlayerEarnings",
      "outputs": [
        {
          "internalType": "uint256",
          "name": "",
          "type": "uint256"
        }
      ],
      "stateMutability": "view",
      "type": "function"
    },
    {
      "inputs": [],
      "name": "goldToken",
      "outputs": [
        {
          "internalType": "contract GoldToken",
          "name": "",
          "type": "address"
        }
      ],
      "stateMutability": "view",
      "type": "function"
    },
    {
      "inputs": [
        {
          "internalType": "uint256",
          "name": "",
          "type": "uint256"
        }
      ],
      "name": "levels",
      "outputs": [
        {
          "internalType": "string",
          "name": "name",
          "type": "string"
        },
        {
          "internalType": "uint256",
          "name": "costPerSecond",
          "type": "uint256"
        },
        {
          "internalType": "enum PickaxeNFTV2.Tier",
          "name": "requiredTier",
          "type": "uint8"
        }
      ],
      "stateMutability": "view",
      "type": "function"
    },
    {
      "inputs": [
        {
          "internalType": "uint256",
          "name": "",
          "type": "uint256"
        }
      ],
      "name": "materialNames",
      "outputs": [
        {
          "internalType": "string",
          "name": "",
          "type": "string"
        }
      ],
      "stateMutability": "view",
      "type": "function"
    },
    {
      "inputs": [
        {
          "internalType": "uint256",
          "name": "",
          "type": "uint256"
        }
      ],
      "name": "materialValues",
      "outputs": [
        {
          "internalType": "uint256",
          "name": "",
          "type": "uint256"
        }
      ],
      "stateMutability": "view",
      "type": "function"
    },
    {
      "inputs": [],
      "name": "pickaxeNFT",
      "outputs": [
        {
          "internalType": "contract PickaxeNFTV2",
          "name": "",
          "type": "address"
        }
      ],
      "stateMutability": "view",
      "type": "function"
    },
    {
      "inputs": [
        {
          "internalType": "address",
          "name": "",
          "type": "address"
        },
        {
          "internalType": "uint256",
          "name": "",
          "type": "uint256"
        }
      ],
      "name": "playerMaterialsMined",
      "outputs": [
        {
          "internalType": "uint256",
          "name": "",
          "type": "uint256"
        }
      ],
      "stateMutability": "view",
      "type": "function"
    },
    {
      "inputs": [
        {
          "internalType": "address",
          "name": "",
          "type": "address"
        }
      ],
      "name": "playerSales",
      "outputs": [
        {
          "internalType": "uint256",
          "name": "",
          "type": "uint256"
        }
      ],
      "stateMutability": "view",
      "type": "function"
    },
    {
      "inputs": [
        {
          "internalType": "uint256[]",
          "name": "materialIds",
          "type": "uint256[]"
        },
        {
          "internalType": "uint256[]",
          "name": "amounts",
          "type": "uint256[]"
        }
      ],
      "name": "previewSale",
      "outputs": [
        {
          "internalType": "uint256",
          "name": "goldAmount",
          "type": "uint256"
        }
      ],
      "stateMutability": "view",
      "type": "function"
    },
    {
      "inputs": [
        {
          "internalType": "uint256",
          "name": "materialId",
          "type": "uint256"
        }
      ],
      "name": "recordMining",
      "outputs": [],
      "stateMutability": "nonpayable",
      "type": "function"
    },
    {
      "inputs": [
        {
          "internalType": "uint256[]",
          "name": "materialIds",
          "type": "uint256[]"
        },
        {
          "internalType": "uint256[]",
          "name": "amounts",
          "type": "uint256[]"
        }
      ],
      "name": "sellResources",
      "outputs": [],
      "stateMutability": "nonpayable",
      "type": "function"
    },
    {
      "inputs": [
        {
          "internalType": "uint8",
          "name": "levelId",
          "type": "uint8"
        },
        {
          "internalType": "uint16",
          "name": "numSeconds",
          "type": "uint16"
        }
      ],
      "name": "startMiningSession",
      "outputs": [],
      "stateMutability": "nonpayable",
      "type": "function"
    },
    {
      "inputs": [],
      "name": "totalSales",
      "outputs": [
        {
          "internalType": "uint256",
          "name": "",
          "type": "uint256"
        }
      ],
      "stateMutability": "view",
      "type": "function"
    }
  ],
  "bytecode": "0x60056104008181526473746f6e6560d81b6104205260e090815260066104408181526531b7b83832b960d11b61046052610100526003610480908152623a34b760e91b6104a0526101205260046104c08181526318dbd85b60e21b6104e052610140526105008181526334b937b760e11b6105205261016052610540818152631b19585960e21b61056052610180526105808281526518dbd8985b1d60d21b6105a0526101a0526105c09182526539b4b63b32b960d11b6105e0526101c0919091526106008181526319dbdb1960e21b610620526101e052600861064081815267706c6174696e756d60c01b610660526102005261068081815267746974616e69756d60c01b6106a052610220526106c0818152673a3ab733b9ba32b760c11b6106e0526102405260096107008181526870616c6c616469756d60b81b6107205261026052600a610740818152696f72696368616c63756d60b01b61076052610280526007610780818152661b5e5d1a1c9a5b60ca1b6107a0526102a0526107c0828152696164616d616e7469746560b01b6107e0526102c052610800928352686d6574656f7269746560b81b610820526102e09290925261084082815266195b595c985b1960ca1b6108605261030052610880958652643a37b830bd60d91b6108a052610320959095526108c094855269617175616d6172696e6560b01b6108e05261034094909452610900848152661c195c9a591bdd60ca1b6109205261036052610940918252637275627960e01b610960526103809190915261098081815267736170706869726560c01b6109a0526103a0526109c092835266191a585b5bdb9960ca1b6109e0526103c092909252610a40604052610a0091825267185b595d1a1e5cdd60c21b610a20526103e091909152620002a4906000906019620007a5565b50604080516103208101825260018082526003602083018190529282019290925260056060820152600a6080820152600860a0820152600c60c0820152601960e082018190526032610100830152603c610120830152603761014080840182905261016084019190915260646101808401819052606e6101a0850181905261012c6101c086015261015e6101e08601526102008501929092526102208401526078610240840181905261026084015261028083015260966102a083018190526102c08301526101f46102e08301526101906103008301526200038892919062000802565b503480156200039657600080fd5b5060405162002a3738038062002a37833981016040819052620003b991620008eb565b6001600160a01b038316620004155760405162461bcd60e51b815260206004820152601560248201527f496e76616c696420746f6b656e2061646472657373000000000000000000000060448201526064015b60405180910390fd5b6001600160a01b0382166200046d5760405162461bcd60e51b815260206004820152601760248201527f496e76616c6964207069636b617865206164647265737300000000000000000060448201526064016200040c565b6001600160a01b038116620004c55760405162461bcd60e51b815260206004820152601360248201527f496e76616c69642067656d20616464726573730000000000000000000000000060448201526064016200040c565b6001600160a01b03838116608090815283821660a090815291831660c052604080519283018152600d606084019081526c426567696e6e6572204d696e6560981b928401929092528183526000602084018190529083015260029081906200052e9082620009f0565b506020820151816001015560408201518160020160006101000a81548160ff0219169083600481111562000566576200056662000935565b0217905550506040805160a0810182526009606082019081526849726f6e204d696e6560b81b60808301528082526007602083015260019282019290925291506005908190620005b79082620009f0565b506020820151816001015560408201518160020160006101000a81548160ff02191690836004811115620005ef57620005ef62000935565b0217905550506040805160a081018252600d606082019081526c50726563696f7573204d696e6560981b60808301528082526028602083015260029282019290925291506008908190620006449082620009f0565b506020820151816001015560408201518160020160006101000a81548160ff021916908360048111156200067c576200067c62000935565b0217905550506040805160a081018252600a606082019081526923b2b69021b0bb32b93760b11b6080830152808252607360208301526003928201929092529150600b908190620006ce9082620009f0565b506020820151816001015560408201518160020160006101000a81548160ff0219169083600481111562000706576200070662000935565b0217905550506040805160a081018252600d606082019081526c4d79746869632044657074687360981b608083015280825261012c60208301526004928201929092529150600e9081906200075c9082620009f0565b506020820151816001015560408201518160020160006101000a81548160ff0219169083600481111562000794576200079462000935565b021790555090505050505062000abc565b828054828255906000526020600020908101928215620007f0579160200282015b82811115620007f05782518290620007df9082620009f0565b5091602001919060010190620007c6565b50620007fe92915062000854565b5090565b82805482825590600052602060002090810192821562000846579160200282015b8281111562000846578251829061ffff1690559160200191906001019062000823565b50620007fe92915062000875565b80821115620007fe5760006200086b82826200088c565b5060010162000854565b5b80821115620007fe576000815560010162000876565b5080546200089a9062000961565b6000825580601f10620008ab575050565b601f016020900490600052602060002090810190620008cb919062000875565b50565b80516001600160a01b0381168114620008e657600080fd5b919050565b6000806000606084860312156200090157600080fd5b6200090c84620008ce565b92506200091c60208501620008ce565b91506200092c60408501620008ce565b90509250925092565b634e487b7160e01b600052602160045260246000fd5b634e487b7160e01b600052604160045260246000fd5b600181811c908216806200097657607f821691505b6020821081036200099757634e487b7160e01b600052602260045260246000fd5b50919050565b601f821115620009eb57600081815260208120601f850160051c81016020861015620009c65750805b601f850160051c820191505b81811015620009e757828155600101620009d2565b5050505b505050565b81516001600160401b0381111562000a0c5762000a0c6200094b565b62000a248162000a1d845462000961565b846200099d565b602080601f83116001811462000a5c576000841562000a435750858301515b600019600386901b1c1916600185901b178555620009e7565b600085815260208120601f198616915b8281101562000a8d5788860151825594840194600190910190840162000a6c565b508582101562000aac5787850151600019600388901b60f8161c191681555b5050505050600190811b01905550565b60805160a05160c051611f0c62000b2b60003960006102050152600081816103130152818161044501528181610774015281816109c6015281816116940152818161172501526117be0152600081816102c101528181610af901528181610bc701526113400152611f0c6000f3fe608060405234801561001057600080fd5b506004361061014d5760003560e01c806386d4f9b5116100c3578063cc4752311161007c578063cc4752311461036a578063d42554871461037d578063d83ea1b01461039d578063dbe3aea4146103b0578063f6c47030146103c3578063fb887ef3146103e357600080fd5b806386d4f9b5146102a957806394002b57146102bc57806399b91a96146102e3578063b25695281461030e578063b2596a6714610335578063c4c8889c1461035757600080fd5b80635655826011610115578063565582601461023f5780636605ff66146102525780636d813c3a1461025b5780637ae3583e1461026e57806381bb3abe14610281578063822046f91461028957600080fd5b80631a63cada146101525780631bd78ca4146101675780631cd474ac1461018d57806323ef2936146101a05780634567da1b14610200575b600080fd5b61016561016036600461194d565b610406565b005b61017a610175366004611982565b61057d565b6040519081526020015b60405180910390f35b61017a61019b36600461194d565b6105af565b6101da6101ae366004611982565b601160205260009081526040902080546001820154600283015460039093015460ff9283169391921684565b6040805160ff909516855260208501939093529183015215156060820152608001610184565b6102277f000000000000000000000000000000000000000000000000000000000000000081565b6040516001600160a01b039091168152602001610184565b61017a61024d36600461194d565b6105d0565b61017a60125481565b61017a6102693660046119ae565b610619565b61016561027c3660046119ae565b6106c6565b610165610d5d565b61029c61029736600461194d565b610dfe565b6040516101849190611a32565b61017a6102b7366004611a91565b610ecf565b6102277f000000000000000000000000000000000000000000000000000000000000000081565b61017a6102f1366004611afd565b601460209081526000928352604080842090915290825290205481565b6102277f000000000000000000000000000000000000000000000000000000000000000081565b61034861034336600461194d565b610fc6565b60405161018493929190611b5f565b6101da610365366004611982565b61107d565b610165610378366004611a91565b611104565b61039061038b366004611b8f565b61142b565b6040516101849190611baa565b61017a6103ab366004611b8f565b61154f565b61029c6103be36600461194d565b611599565b61017a6103d1366004611982565b60136020526000908152604090205481565b6103f66103f1366004611bec565b611645565b6040519015158152602001610184565b60005481106104305760405162461bcd60e51b815260040161042790611c1f565b60405180910390fd5b60405163f86a3c9360e01b81523360048201527f00000000000000000000000000000000000000000000000000000000000000006001600160a01b03169063f86a3c9390602401602060405180830381865afa158015610494573d6000803e3d6000fd5b505050506040513d601f19601f820116820180604052508101906104b89190611c4c565b6104f15760405162461bcd60e51b815260206004820152600a6024820152694e6f207069636b61786560b01b6044820152606401610427565b336000908152601460209081526040808320848452909152812080549161051783611c84565b919050555080336001600160a01b03167f5e329ee89965bc4e685764006fa9c53a3adf4b9f4e4343ac7454259b413f5cd26000848154811061055b5761055b611c9d565b906000526020600020016040516105729190611ced565b60405180910390a350565b6001600160a01b0381166000908152601360205260408120546105a990670de0b6b3a764000090611d99565b92915050565b600181815481106105bf57600080fd5b600091825260209091200154905081565b60015460009082106105f45760405162461bcd60e51b815260040161042790611c1f565b6001828154811061060757610607611c9d565b90600052602060002001549050919050565b600060058360ff161061063e5760405162461bcd60e51b815260040161042790611dbb565b60008261ffff16116106925760405162461bcd60e51b815260206004820152601860248201527f5365636f6e6473206d75737420626520706f73697469766500000000000000006044820152606401610427565b8161ffff1660028460ff16600581106106ad576106ad611c9d565b60030201600101546106bf9190611de2565b9392505050565b60008260ff161180156106dc575060058260ff16105b6106f85760405162461bcd60e51b815260040161042790611dbb565b600f8161ffff16101580156107135750610e108161ffff1611155b61075f5760405162461bcd60e51b815260206004820152601760248201527f5365636f6e6473206d7573742062652031352d333630300000000000000000006044820152606401610427565b60405163f86a3c9360e01b81523360048201527f00000000000000000000000000000000000000000000000000000000000000006001600160a01b03169063f86a3c9390602401602060405180830381865afa1580156107c3573d6000803e3d6000fd5b505050506040513d601f19601f820116820180604052508101906107e79190611c4c565b6108205760405162461bcd60e51b815260206004820152600a6024820152694e6f207069636b61786560b01b6044820152606401610427565b336000908152601160205260409020600381015460ff161580610847575080600201544210155b61088c5760405162461bcd60e51b815260206004820152601660248201527553657373696f6e20616c72656164792061637469766560501b6044820152606401610427565b600381015460ff1680156108a4575080600201544210155b156108b65760038101805460ff191690555b600060028460ff16600581106108ce576108ce611c9d565b600302016040518060600160405290816000820180546108ed90611cb3565b80601f016020809104026020016040519081016040528092919081815260200182805461091990611cb3565b80156109665780601f1061093b57610100808354040283529160200191610966565b820191906000526020600020905b81548152906001019060200180831161094957829003601f168201915b505050918352505060018201546020820152600282015460409091019060ff16600481111561099757610997611b27565b60048111156109a8576109a8611b27565b905250604051636dbbe68960e01b81523360048201529091506000907f00000000000000000000000000000000000000000000000000000000000000006001600160a01b031690636dbbe68990602401608060405180830381865afa158015610a15573d6000803e3d6000fd5b505050506040513d601f19601f82011682018060405250810190610a399190611df9565b505091505081604001516004811115610a5457610a54611b27565b816004811115610a6657610a66611b27565b1015610aab5760405162461bcd60e51b81526020600482015260146024820152735069636b617865207469657220746f6f206c6f7760601b6044820152606401610427565b60008461ffff168360200151610ac19190611de2565b90506000610ad782670de0b6b3a7640000611de2565b6040516370a0823160e01b815233600482015290915081906001600160a01b037f000000000000000000000000000000000000000000000000000000000000000016906370a0823190602401602060405180830381865afa158015610b40573d6000803e3d6000fd5b505050506040513d601f19601f82011682018060405250810190610b649190611e3b565b1015610ba55760405162461bcd60e51b815260206004820152601060248201526f125b9cdd59999a58da595b9d0811d31160821b6044820152606401610427565b6040516323b872dd60e01b8152336004820152306024820152604481018290527f00000000000000000000000000000000000000000000000000000000000000006001600160a01b0316906323b872dd906064016020604051808303816000875af1158015610c18573d6000803e3d6000fd5b505050506040513d601f19601f82011682018060405250810190610c3c9190611c4c565b610c7a5760405162461bcd60e51b815260206004820152600f60248201526e151c985b9cd9995c8819985a5b1959608a1b6044820152606401610427565b426000610c8b61ffff891683611e54565b6040805160808101825260ff808d16808352602080840188815284860187815260016060870181815233600081815260119096529489902097518854971660ff1997881617885592519087015551600286015551600390940180549415159490931693909317909155915192935090917f4e28707fad82e596fdb54cd21040accc5e96f2952f4fb58e6c0416c888b4a59090610d4a908c9089908890889061ffff94909416845260208401929092526040830152606082015260800190565b60405180910390a3505050505050505050565b336000908152601160205260409020600381015460ff16610db45760405162461bcd60e51b815260206004820152601160248201527027379030b1ba34bb329039b2b9b9b4b7b760791b6044820152606401610427565b805460405142815260ff9091169033907f1cf02201704e6bba00f705100a89d4e67b0778f2a09eff2fefcf117dcb026b2e9060200160405180910390a3600301805460ff19169055565b6000546060908210610e225760405162461bcd60e51b815260040161042790611c1f565b60008281548110610e3557610e35611c9d565b906000526020600020018054610e4a90611cb3565b80601f0160208091040260200160405190810160405280929190818152602001828054610e7690611cb3565b8015610ec35780601f10610e9857610100808354040283529160200191610ec3565b820191906000526020600020905b815481529060010190602001808311610ea657829003601f168201915b50505050509050919050565b6000838214610f185760405162461bcd60e51b8152602060048201526015602482015274082e4e4c2f240d8cadccee8d040dad2e6dac2e8c6d605b1b6044820152606401610427565b60005b84811015610fbd57600154868683818110610f3857610f38611c9d565b905060200201351015610fab576001868683818110610f5957610f59611c9d565b9050602002013581548110610f7057610f70611c9d565b9060005260206000200154848483818110610f8d57610f8d611c9d565b90506020020135610f9e9190611de2565b610fa89083611e54565b91505b80610fb581611c84565b915050610f1b565b50949350505050565b60028160058110610fd657600080fd5b6003020180549091508190610fea90611cb3565b80601f016020809104026020016040519081016040528092919081815260200182805461101690611cb3565b80156110635780601f1061103857610100808354040283529160200191611063565b820191906000526020600020905b81548152906001019060200180831161104657829003601f168201915b50505050600183015460029093015491929160ff16905083565b6001600160a01b03811660009081526011602090815260408083208151608081018352815460ff9081168252600183015494820194909452600282015492810192909252600301549091161580156060830181905283928392839283916110e75750816040015142105b825160208401516040909401519099939850965094509092505050565b82811461114b5760405162461bcd60e51b8152602060048201526015602482015274082e4e4c2f240d8cadccee8d040dad2e6dac2e8c6d605b1b6044820152606401610427565b826111985760405162461bcd60e51b815260206004820152601f60248201527f4d7573742073656c6c206174206c65617374206f6e65207265736f75726365006044820152606401610427565b6000805b848110156112bc576001548686838181106111b9576111b9611c9d565b90506020020135106111dd5760405162461bcd60e51b815260040161042790611c1f565b60008484838181106111f1576111f1611c9d565b90506020020135116112455760405162461bcd60e51b815260206004820152601760248201527f416d6f756e74206d75737420626520706f7369746976650000000000000000006044820152606401610427565b600186868381811061125957611259611c9d565b905060200201358154811061127057611270611c9d565b906000526020600020015484848381811061128d5761128d611c9d565b9050602002013561129e9190611de2565b6112a89083611e54565b9150806112b481611c84565b91505061119c565b506000811161130d5760405162461bcd60e51b815260206004820152601c60248201527f546f74616c2076616c7565206d75737420626520706f736974697665000000006044820152606401610427565b600061132182670de0b6b3a7640000611de2565b6040516340c10f1960e01b8152336004820152602481018290529091507f00000000000000000000000000000000000000000000000000000000000000006001600160a01b0316906340c10f1990604401600060405180830381600087803b15801561138c57600080fd5b505af11580156113a0573d6000803e3d6000fd5b5050505080601260008282546113b69190611e54565b909155505033600090815260136020526040812080548392906113da908490611e54565b909155505060405133907f34cdaaf32cb750c6d0c8f0fa30220665464484aaea3eb4db3b69d7596e39c7769061141b90899089908990899089904290611e99565b60405180910390a2505050505050565b61143361191c565b60058260ff16106114565760405162461bcd60e51b815260040161042790611dbb565b60028260ff166005811061146c5761146c611c9d565b6003020160405180606001604052908160008201805461148b90611cb3565b80601f01602080910402602001604051908101604052809291908181526020018280546114b790611cb3565b80156115045780601f106114d957610100808354040283529160200191611504565b820191906000526020600020905b8154815290600101906020018083116114e757829003601f168201915b505050918352505060018201546020820152600282015460409091019060ff16600481111561153557611535611b27565b600481111561154657611546611b27565b90525092915050565b600060058260ff16106115745760405162461bcd60e51b815260040161042790611dbb565b60028260ff166005811061158a5761158a611c9d565b60030201600101549050919050565b600081815481106115a957600080fd5b9060005260206000200160009150905080546115c490611cb3565b80601f01602080910402602001604051908101604052809291908181526020018280546115f090611cb3565b801561163d5780601f106116125761010080835404028352916020019161163d565b820191906000526020600020905b81548152906001019060200180831161162057829003601f168201915b505050505081565b600060058260ff161061166a5760405162461bcd60e51b815260040161042790611dbb565b8160ff166000036117065760405163f86a3c9360e01b81526001600160a01b0384811660048301527f0000000000000000000000000000000000000000000000000000000000000000169063f86a3c9390602401602060405180830381865afa1580156116db573d6000803e3d6000fd5b505050506040513d601f19601f820116820180604052508101906116ff9190611c4c565b90506105a9565b60405163f86a3c9360e01b81526001600160a01b0384811660048301527f0000000000000000000000000000000000000000000000000000000000000000169063f86a3c9390602401602060405180830381865afa15801561176c573d6000803e3d6000fd5b505050506040513d601f19601f820116820180604052508101906117909190611c4c565b61179c575060006105a9565b604051636dbbe68960e01b81526001600160a01b0384811660048301526000917f000000000000000000000000000000000000000000000000000000000000000090911690636dbbe68990602401608060405180830381865afa158015611807573d6000803e3d6000fd5b505050506040513d601f19601f8201168201806040525081019061182b9190611df9565b505091505060028360ff166005811061184657611846611c9d565b600302016002015460ff16600481111561186257611862611b27565b81600481111561187457611874611b27565b10156118845760009150506105a9565b6001600160a01b0384166000908152601160209081526040918290208251608081018452815460ff908116825260018301549382019390935260028201549381019390935260030154161580156060830152806118eb57508360ff16816000015160ff1614155b156118fb576000925050506105a9565b80604001514210611911576000925050506105a9565b506001949350505050565b604051806060016040528060608152602001600081526020016000600481111561194857611948611b27565b905290565b60006020828403121561195f57600080fd5b5035919050565b80356001600160a01b038116811461197d57600080fd5b919050565b60006020828403121561199457600080fd5b6106bf82611966565b803560ff8116811461197d57600080fd5b600080604083850312156119c157600080fd5b6119ca8361199d565b9150602083013561ffff811681146119e157600080fd5b809150509250929050565b6000815180845260005b81811015611a12576020818501810151868301820152016119f6565b506000602082860101526020601f19601f83011685010191505092915050565b6020815260006106bf60208301846119ec565b60008083601f840112611a5757600080fd5b50813567ffffffffffffffff811115611a6f57600080fd5b6020830191508360208260051b8501011115611a8a57600080fd5b9250929050565b60008060008060408587031215611aa757600080fd5b843567ffffffffffffffff80821115611abf57600080fd5b611acb88838901611a45565b90965094506020870135915080821115611ae457600080fd5b50611af187828801611a45565b95989497509550505050565b60008060408385031215611b1057600080fd5b611b1983611966565b946020939093013593505050565b634e487b7160e01b600052602160045260246000fd5b60058110611b5b57634e487b7160e01b600052602160045260246000fd5b9052565b606081526000611b7260608301866119ec565b9050836020830152611b876040830184611b3d565b949350505050565b600060208284031215611ba157600080fd5b6106bf8261199d565b602081526000825160606020840152611bc660808401826119ec565b9050602084015160408401526040840151611be46060850182611b3d565b509392505050565b60008060408385031215611bff57600080fd5b611c0883611966565b9150611c166020840161199d565b90509250929050565b602080825260139082015272125b9d985b1a59081b585d195c9a585b081251606a1b604082015260600190565b600060208284031215611c5e57600080fd5b815180151581146106bf57600080fd5b634e487b7160e01b600052601160045260246000fd5b600060018201611c9657611c96611c6e565b5060010190565b634e487b7160e01b600052603260045260246000fd5b600181811c90821680611cc757607f821691505b602082108103611ce757634e487b7160e01b600052602260045260246000fd5b50919050565b600060208083526000845481600182811c915080831680611d0f57607f831692505b8583108103611d2c57634e487b7160e01b85526022600452602485fd5b878601838152602001818015611d495760018114611d5f57611d8a565b60ff198616825284151560051b82019650611d8a565b60008b81526020902060005b86811015611d8457815484820152908501908901611d6b565b83019750505b50949998505050505050505050565b600082611db657634e487b7160e01b600052601260045260246000fd5b500490565b6020808252600d908201526c125b9d985b1a59081b195d995b609a1b604082015260600190565b80820281158282048414176105a9576105a9611c6e565b60008060008060808587031215611e0f57600080fd5b84519350602085015160058110611e2557600080fd5b6040860151606090960151949790965092505050565b600060208284031215611e4d57600080fd5b5051919050565b808201808211156105a9576105a9611c6e565b81835260006001600160fb1b03831115611e8057600080fd5b8260051b80836020870137939093016020019392505050565b608081526000611ead60808301888a611e67565b8281036020840152611ec0818789611e67565b604084019590955250506060015294935050505056fea2646970667358221220d6b46828992e03b46be658c4220effcfcdd73a88a8aa99c73fdbbe39920a3b6b64736f6c63430008140033",
  "linkReferences": {},
  "deployedLinkReferences": {}
}