{
  "_format": "hh-sol-artifact-1",
  "contractName": "GameV3",
  "sourceName": "contracts/GameV3.sol",
  "abi": [
    {
      "inputs": [
        {
          "internalType": "address",
          "name": "_goldToken",
          "type": "address"
        },
        {
          "internalType": "address",
          "name": "_pickaxeNFT",
          "type": "address"
        },
        {
          "internalType": "address",
          "name": "_gemNFT",
          "type": "address"
        }
      ],
      "stateMutability": "nonpayable",
      "type": "constructor"
    },
    {
      "anonymous": false,
      "inputs": [
        {
          "indexed": true,
          "internalType": "address",
          "name": "player",
          "type": "address"
        },
        {
          "indexed": true,
          "internalType": "uint256",
          "name": "materialId",
          "type": "uint256"
        },
        {
          "indexed": false,
          "internalType": "string",
          "name": "materialName",
          "type": "string"
        }
      ],
      "name": "MaterialMined",
      "type": "event"
    },
    {
      "anonymous": false,
      "inputs": [
        {
          "indexed": true,
          "internalType": "address",
          "name": "player",
          "type": "address"
        },
        {
          "indexed": true,
          "internalType": "uint8",
          "name": "levelId",
          "type": "uint8"
        },
        {
          "indexed": false,
          "internalType": "uint256",
          "name": "endTime",
          "type": "uint256"
        }
      ],
      "name": "SessionEnded",
      "type": "event"
    },
    {
      "anonymous": false,
      "inputs": [
        {
          "indexed": true,
          "internalType": "address",
          "name": "player",
          "type": "address"
        },
        {
          "indexed": true,
          "internalType": "uint8",
          "name": "levelId",
          "type": "uint8"
        },
        {
          "indexed": false,
          "internalType": "uint8",
          "name": "numMinutes",
          "type": "uint8"
        },
        {
          "indexed": false,
          "internalType": "uint256",
          "name": "cost",
          "type": "uint256"
        },
        {
          "indexed": false,
          "internalType": "uint256",
          "name": "startTime",
          "type": "uint256"
        },
        {
          "indexed": false,
          "internalType": "uint256",
          "name": "endTime",
          "type": "uint256"
        }
      ],
      "name": "SessionStarted",
      "type": "event"
    },
    {
      "anonymous": false,
      "inputs": [
        {
          "indexed": true,
          "internalType": "address",
          "name": "player",
          "type": "address"
        },
        {
          "indexed": false,
          "internalType": "uint256[]",
          "name": "materialIds",
          "type": "uint256[]"
        },
        {
          "indexed": false,
          "internalType": "uint256[]",
          "name": "amounts",
          "type": "uint256[]"
        },
        {
          "indexed": false,
          "internalType": "uint256",
          "name": "goldEarned",
          "type": "uint256"
        },
        {
          "indexed": false,
          "internalType": "uint256",
          "name": "timestamp",
          "type": "uint256"
        }
      ],
      "name": "Sold",
      "type": "event"
    },
    {
      "inputs": [
        {
          "internalType": "address",
          "name": "",
          "type": "address"
        }
      ],
      "name": "activeSessions",
      "outputs": [
        {
          "internalType": "uint8",
          "name": "levelId",
          "type": "uint8"
        },
        {
          "internalType": "uint256",
          "name": "startTime",
          "type": "uint256"
        },
        {
          "internalType": "uint256",
          "name": "endTime",
          "type": "uint256"
        },
        {
          "internalType": "bool",
          "name": "active",
          "type": "bool"
        }
      ],
      "stateMutability": "view",
      "type": "function"
    },
    {
      "inputs": [
        {
          "internalType": "uint8",
          "name": "levelId",
          "type": "uint8"
        },
        {
          "internalType": "uint8",
          "name": "numMinutes",
          "type": "uint8"
        }
      ],
      "name": "calculateSessionCost",
      "outputs": [
        {
          "internalType": "uint256",
          "name": "",
          "type": "uint256"
        }
      ],
      "stateMutability": "view",
      "type": "function"
    },
    {
      "inputs": [
        {
          "internalType": "address",
          "name": "player",
          "type": "address"
        },
        {
          "internalType": "uint8",
          "name": "levelId",
          "type": "uint8"
        }
      ],
      "name": "canAccessLevel",
      "outputs": [
        {
          "internalType": "bool",
          "name": "canAccess",
          "type": "bool"
        }
      ],
      "stateMutability": "view",
      "type": "function"
    },
    {
      "inputs": [],
      "name": "endMiningSession",
      "outputs": [],
      "stateMutability": "nonpayable",
      "type": "function"
    },
    {
      "inputs": [],
      "name": "gemNFT",
      "outputs": [
        {
          "internalType": "contract GemNFT",
          "name": "",
          "type": "address"
        }
      ],
      "stateMutability": "view",
      "type": "function"
    },
    {
      "inputs": [
        {
          "internalType": "address",
          "name": "player",
          "type": "address"
        }
      ],
      "name": "getActiveSession",
      "outputs": [
        {
          "internalType": "uint8",
          "name": "levelId",
          "type": "uint8"
        },
        {
          "internalType": "uint256",
          "name": "startTime",
          "type": "uint256"
        },
        {
          "internalType": "uint256",
          "name": "endTime",
          "type": "uint256"
        },
        {
          "internalType": "bool",
          "name": "active",
          "type": "bool"
        }
      ],
      "stateMutability": "view",
      "type": "function"
    },
    {
      "inputs": [
        {
          "internalType": "uint8",
          "name": "levelId",
          "type": "uint8"
        }
      ],
      "name": "getLevelConfig",
      "outputs": [
        {
          "components": [
            {
              "internalType": "string",
              "name": "name",
              "type": "string"
            },
            {
              "internalType": "uint256",
              "name": "costPerMinute",
              "type": "uint256"
            },
            {
              "internalType": "enum PickaxeNFTV2.Tier",
              "name": "requiredTier",
              "type": "uint8"
            }
          ],
          "internalType": "struct GameV3.LevelConfig",
          "name": "",
          "type": "tuple"
        }
      ],
      "stateMutability": "view",
      "type": "function"
    },
    {
      "inputs": [
        {
          "internalType": "uint8",
          "name": "levelId",
          "type": "uint8"
        }
      ],
      "name": "getLevelCostPerMinute",
      "outputs": [
        {
          "internalType": "uint256",
          "name": "",
          "type": "uint256"
        }
      ],
      "stateMutability": "view",
      "type": "function"
    },
    {
      "inputs": [
        {
          "internalType": "uint256",
          "name": "materialId",
          "type": "uint256"
        }
      ],
      "name": "getMaterialName",
      "outputs": [
        {
          "internalType": "string",
          "name": "",
          "type": "string"
        }
      ],
      "stateMutability": "view",
      "type": "function"
    },
    {
      "inputs": [
        {
          "internalType": "uint256",
          "name": "materialId",
          "type": "uint256"
        }
      ],
      "name": "getMaterialValue",
      "outputs": [
        {
          "internalType": "uint256",
          "name": "",
          "type": "uint256"
        }
      ],
      "stateMutability": "view",
      "type": "function"
    },
    {
      "inputs": [
        {
          "internalType": "address",
          "name": "player",
          "type": "address"
        }
      ],
      "name": "getPlayerEarnings",
      "outputs": [
        {
          "internalType": "uint256",
          "name": "",
          "type": "uint256"
        }
      ],
      "stateMutability": "view",
      "type": "function"
    },
    {
      "inputs": [],
      "name": "goldToken",
      "outputs": [
        {
          "internalType": "contract GoldToken",
          "name": "",
          "type": "address"
        }
      ],
      "stateMutability": "view",
      "type": "function"
    },
    {
      "inputs": [
        {
          "internalType": "uint256",
          "name": "",
          "type": "uint256"
        }
      ],
      "name": "levels",
      "outputs": [
        {
          "internalType": "string",
          "name": "name",
          "type": "string"
        },
        {
          "internalType": "uint256",
          "name": "costPerMinute",
          "type": "uint256"
        },
        {
          "internalType": "enum PickaxeNFTV2.Tier",
          "name": "requiredTier",
          "type": "uint8"
        }
      ],
      "stateMutability": "view",
      "type": "function"
    },
    {
      "inputs": [
        {
          "internalType": "uint256",
          "name": "",
          "type": "uint256"
        }
      ],
      "name": "materialNames",
      "outputs": [
        {
          "internalType": "string",
          "name": "",
          "type": "string"
        }
      ],
      "stateMutability": "view",
      "type": "function"
    },
    {
      "inputs": [
        {
          "internalType": "uint256",
          "name": "",
          "type": "uint256"
        }
      ],
      "name": "materialValues",
      "outputs": [
        {
          "internalType": "uint256",
          "name": "",
          "type": "uint256"
        }
      ],
      "stateMutability": "view",
      "type": "function"
    },
    {
      "inputs": [],
      "name": "pickaxeNFT",
      "outputs": [
        {
          "internalType": "contract PickaxeNFTV2",
          "name": "",
          "type": "address"
        }
      ],
      "stateMutability": "view",
      "type": "function"
    },
    {
      "inputs": [
        {
          "internalType": "address",
          "name": "",
          "type": "address"
        },
        {
          "internalType": "uint256",
          "name": "",
          "type": "uint256"
        }
      ],
      "name": "playerMaterialsMined",
      "outputs": [
        {
          "internalType": "uint256",
          "name": "",
          "type": "uint256"
        }
      ],
      "stateMutability": "view",
      "type": "function"
    },
    {
      "inputs": [
        {
          "internalType": "address",
          "name": "",
          "type": "address"
        }
      ],
      "name": "playerSales",
      "outputs": [
        {
          "internalType": "uint256",
          "name": "",
          "type": "uint256"
        }
      ],
      "stateMutability": "view",
      "type": "function"
    },
    {
      "inputs": [
        {
          "internalType": "uint256[]",
          "name": "materialIds",
          "type": "uint256[]"
        },
        {
          "internalType": "uint256[]",
          "name": "amounts",
          "type": "uint256[]"
        }
      ],
      "name": "previewSale",
      "outputs": [
        {
          "internalType": "uint256",
          "name": "goldAmount",
          "type": "uint256"
        }
      ],
      "stateMutability": "view",
      "type": "function"
    },
    {
      "inputs": [
        {
          "internalType": "uint256",
          "name": "materialId",
          "type": "uint256"
        }
      ],
      "name": "recordMining",
      "outputs": [],
      "stateMutability": "nonpayable",
      "type": "function"
    },
    {
      "inputs": [
        {
          "internalType": "uint256[]",
          "name": "materialIds",
          "type": "uint256[]"
        },
        {
          "internalType": "uint256[]",
          "name": "amounts",
          "type": "uint256[]"
        }
      ],
      "name": "sellResources",
      "outputs": [],
      "stateMutability": "nonpayable",
      "type": "function"
    },
    {
      "inputs": [
        {
          "internalType": "uint8",
          "name": "levelId",
          "type": "uint8"
        },
        {
          "internalType": "uint8",
          "name": "numMinutes",
          "type": "uint8"
        }
      ],
      "name": "startMiningSession",
      "outputs": [],
      "stateMutability": "nonpayable",
      "type": "function"
    },
    {
      "inputs": [],
      "name": "totalSales",
      "outputs": [
        {
          "internalType": "uint256",
          "name": "",
          "type": "uint256"
        }
      ],
      "stateMutability": "view",
      "type": "function"
    }
  ],
  "bytecode": "0x60056104008181526473746f6e6560d81b6104205260e090815260066104408181526531b7b83832b960d11b61046052610100526003610480908152623a34b760e91b6104a0526101205260046104c08181526318dbd85b60e21b6104e052610140526105008181526334b937b760e11b6105205261016052610540818152631b19585960e21b61056052610180526105808281526518dbd8985b1d60d21b6105a0526101a0526105c09182526539b4b63b32b960d11b6105e0526101c0919091526106008181526319dbdb1960e21b610620526101e052600861064081815267706c6174696e756d60c01b610660526102005261068081815267746974616e69756d60c01b6106a052610220526106c0818152673a3ab733b9ba32b760c11b6106e0526102405260096107008181526870616c6c616469756d60b81b6107205261026052600a610740818152696f72696368616c63756d60b01b61076052610280526007610780818152661b5e5d1a1c9a5b60ca1b6107a0526102a0526107c0828152696164616d616e7469746560b01b6107e0526102c052610800928352686d6574656f7269746560b81b610820526102e09290925261084082815266195b595c985b1960ca1b6108605261030052610880958652643a37b830bd60d91b6108a052610320959095526108c094855269617175616d6172696e6560b01b6108e05261034094909452610900848152661c195c9a591bdd60ca1b6109205261036052610940918252637275627960e01b610960526103809190915261098081815267736170706869726560c01b6109a0526103a0526109c092835266191a585b5bdb9960ca1b6109e0526103c092909252610a40604052610a0091825267185b595d1a1e5cdd60c21b610a20526103e091909152620002a4906000906019620007a8565b50604080516103208101825260018082526003602083018190529282019290925260056060820152600a6080820152600860a0820152600c60c0820152601960e082018190526032610100830152603c610120830152603761014080840182905261016084019190915260646101808401819052606e6101a0850181905261012c6101c086015261015e6101e08601526102008501929092526102208401526078610240840181905261026084015261028083015260966102a083018190526102c08301526101f46102e08301526101906103008301526200038892919062000805565b503480156200039657600080fd5b50604051620029f9380380620029f9833981016040819052620003b991620008ee565b6001600160a01b038316620004155760405162461bcd60e51b815260206004820152601560248201527f496e76616c696420746f6b656e2061646472657373000000000000000000000060448201526064015b60405180910390fd5b6001600160a01b0382166200046d5760405162461bcd60e51b815260206004820152601760248201527f496e76616c6964207069636b617865206164647265737300000000000000000060448201526064016200040c565b6001600160a01b038116620004c55760405162461bcd60e51b815260206004820152601360248201527f496e76616c69642067656d20616464726573730000000000000000000000000060448201526064016200040c565b6001600160a01b03838116608090815283821660a090815291831660c052604080519283018152600d606084019081526c426567696e6e6572204d696e6560981b928401929092528183526000602084018190529083015260029081906200052e9082620009f3565b506020820151816001015560408201518160020160006101000a81548160ff0219169083600481111562000566576200056662000938565b0217905550506040805160a0810182526009606082019081526849726f6e204d696e6560b81b60808301528082526101a4602083015260019282019290925291506005908190620005b89082620009f3565b506020820151816001015560408201518160020160006101000a81548160ff02191690836004811115620005f057620005f062000938565b0217905550506040805160a081018252600d606082019081526c50726563696f7573204d696e6560981b6080830152808252610960602083015260029282019290925291506008908190620006469082620009f3565b506020820151816001015560408201518160020160006101000a81548160ff021916908360048111156200067e576200067e62000938565b0217905550506040805160a081018252600a606082019081526923b2b69021b0bb32b93760b11b6080830152808252611af460208301526003928201929092529150600b908190620006d19082620009f3565b506020820151816001015560408201518160020160006101000a81548160ff0219169083600481111562000709576200070962000938565b0217905550506040805160a081018252600d606082019081526c4d79746869632044657074687360981b608083015280825261465060208301526004928201929092529150600e9081906200075f9082620009f3565b506020820151816001015560408201518160020160006101000a81548160ff0219169083600481111562000797576200079762000938565b021790555090505050505062000abf565b828054828255906000526020600020908101928215620007f3579160200282015b82811115620007f35782518290620007e29082620009f3565b5091602001919060010190620007c9565b506200080192915062000857565b5090565b82805482825590600052602060002090810192821562000849579160200282015b8281111562000849578251829061ffff1690559160200191906001019062000826565b506200080192915062000878565b80821115620008015760006200086e82826200088f565b5060010162000857565b5b8082111562000801576000815560010162000879565b5080546200089d9062000964565b6000825580601f10620008ae575050565b601f016020900490600052602060002090810190620008ce919062000878565b50565b80516001600160a01b0381168114620008e957600080fd5b919050565b6000806000606084860312156200090457600080fd5b6200090f84620008d1565b92506200091f60208501620008d1565b91506200092f60408501620008d1565b90509250925092565b634e487b7160e01b600052602160045260246000fd5b634e487b7160e01b600052604160045260246000fd5b600181811c908216806200097957607f821691505b6020821081036200099a57634e487b7160e01b600052602260045260246000fd5b50919050565b601f821115620009ee57600081815260208120601f850160051c81016020861015620009c95750805b601f850160051c820191505b81811015620009ea57828155600101620009d5565b5050505b505050565b81516001600160401b0381111562000a0f5762000a0f6200094e565b62000a278162000a20845462000964565b84620009a0565b602080601f83116001811462000a5f576000841562000a465750858301515b600019600386901b1c1916600185901b178555620009ea565b600085815260208120601f198616915b8281101562000a905788860151825594840194600190910190840162000a6f565b508582101562000aaf5787850151600019600388901b60f8161c191681555b5050505050600190811b01905550565b60805160a05160c051611ecb62000b2e600039600061020501526000818161030001528181610445015281816106ba015281816108d201528181611652015281816116e3015261177c0152600081816102ae01528181610a0401528181610ad201526112530152611ecb6000f3fe608060405234801561001057600080fd5b506004361061014d5760003560e01c806394002b57116100c3578063d3c09c7c1161007c578063d3c09c7c1461036a578063d42554871461037d578063dbe3aea41461039d578063e0dddb25146103b0578063f6c47030146103c3578063fb887ef3146103e357600080fd5b806394002b57146102a957806399b91a96146102d0578063b2569528146102fb578063b2596a6714610322578063c4c8889c14610344578063cc4752311461035757600080fd5b80635655826011610115578063565582601461023f578063612c1953146102525780636605ff661461026557806381bb3abe1461026e578063822046f91461027657806386d4f9b51461029657600080fd5b80631a63cada146101525780631bd78ca4146101675780631cd474ac1461018d57806323ef2936146101a05780634567da1b14610200575b600080fd5b61016561016036600461190b565b610406565b005b61017a610175366004611940565b61057d565b6040519081526020015b60405180910390f35b61017a61019b36600461190b565b6105af565b6101da6101ae366004611940565b601160205260009081526040902080546001820154600283015460039093015460ff9283169391921684565b6040805160ff909516855260208501939093529183015215156060820152608001610184565b6102277f000000000000000000000000000000000000000000000000000000000000000081565b6040516001600160a01b039091168152602001610184565b61017a61024d36600461190b565b6105d0565b61016561026036600461196c565b610619565b61017a60125481565b610165610c70565b61028961028436600461190b565b610d11565b60405161018491906119e5565b61017a6102a4366004611a44565b610de2565b6102277f000000000000000000000000000000000000000000000000000000000000000081565b61017a6102de366004611ab0565b601460209081526000928352604080842090915290825290205481565b6102277f000000000000000000000000000000000000000000000000000000000000000081565b61033561033036600461190b565b610ed9565b60405161018493929190611b12565b6101da610352366004611940565b610f90565b610165610365366004611a44565b611017565b61017a610378366004611b42565b61133e565b61039061038b366004611b42565b611388565b6040516101849190611b5d565b6102896103ab36600461190b565b6114ac565b61017a6103be36600461196c565b611558565b61017a6103d1366004611940565b60136020526000908152604090205481565b6103f66103f1366004611b9f565b611603565b6040519015158152602001610184565b60005481106104305760405162461bcd60e51b815260040161042790611bbb565b60405180910390fd5b60405163f86a3c9360e01b81523360048201527f00000000000000000000000000000000000000000000000000000000000000006001600160a01b03169063f86a3c9390602401602060405180830381865afa158015610494573d6000803e3d6000fd5b505050506040513d601f19601f820116820180604052508101906104b89190611be8565b6104f15760405162461bcd60e51b815260206004820152600a6024820152694e6f207069636b61786560b01b6044820152606401610427565b336000908152601460209081526040808320848452909152812080549161051783611c20565b919050555080336001600160a01b03167f5e329ee89965bc4e685764006fa9c53a3adf4b9f4e4343ac7454259b413f5cd26000848154811061055b5761055b611c39565b906000526020600020016040516105729190611c89565b60405180910390a350565b6001600160a01b0381166000908152601360205260408120546105a990670de0b6b3a764000090611d35565b92915050565b600181815481106105bf57600080fd5b600091825260209091200154905081565b60015460009082106105f45760405162461bcd60e51b815260040161042790611bbb565b6001828154811061060757610607611c39565b90600052602060002001549050919050565b60008260ff1611801561062f575060058260ff16105b61064b5760405162461bcd60e51b815260040161042790611d57565b60008160ff161180156106625750603c8160ff1611155b6106a55760405162461bcd60e51b815260206004820152601460248201527304d696e75746573206d75737420626520312d36360641b6044820152606401610427565b60405163f86a3c9360e01b81523360048201527f00000000000000000000000000000000000000000000000000000000000000006001600160a01b03169063f86a3c9390602401602060405180830381865afa158015610709573d6000803e3d6000fd5b505050506040513d601f19601f8201168201806040525081019061072d9190611be8565b6107665760405162461bcd60e51b815260206004820152600a6024820152694e6f207069636b61786560b01b6044820152606401610427565b3360009081526011602052604090206003015460ff16156107c25760405162461bcd60e51b815260206004820152601660248201527553657373696f6e20616c72656164792061637469766560501b6044820152606401610427565b600060028360ff16600581106107da576107da611c39565b600302016040518060600160405290816000820180546107f990611c4f565b80601f016020809104026020016040519081016040528092919081815260200182805461082590611c4f565b80156108725780601f1061084757610100808354040283529160200191610872565b820191906000526020600020905b81548152906001019060200180831161085557829003601f168201915b505050918352505060018201546020820152600282015460409091019060ff1660048111156108a3576108a3611ada565b60048111156108b4576108b4611ada565b905250604051636dbbe68960e01b81523360048201529091506000907f00000000000000000000000000000000000000000000000000000000000000006001600160a01b031690636dbbe68990602401608060405180830381865afa158015610921573d6000803e3d6000fd5b505050506040513d601f19601f820116820180604052508101906109459190611d7e565b50509150508160400151600481111561096057610960611ada565b81600481111561097257610972611ada565b10156109b75760405162461bcd60e51b81526020600482015260146024820152735069636b617865207469657220746f6f206c6f7760601b6044820152606401610427565b60008360ff1683602001516109cc9190611dc0565b905060006109e282670de0b6b3a7640000611dc0565b6040516370a0823160e01b815233600482015290915081906001600160a01b037f000000000000000000000000000000000000000000000000000000000000000016906370a0823190602401602060405180830381865afa158015610a4b573d6000803e3d6000fd5b505050506040513d601f19601f82011682018060405250810190610a6f9190611dd7565b1015610ab05760405162461bcd60e51b815260206004820152601060248201526f125b9cdd59999a58da595b9d0811d31160821b6044820152606401610427565b6040516323b872dd60e01b8152336004820152306024820152604481018290527f00000000000000000000000000000000000000000000000000000000000000006001600160a01b0316906323b872dd906064016020604051808303816000875af1158015610b23573d6000803e3d6000fd5b505050506040513d601f19601f82011682018060405250810190610b479190611be8565b610b855760405162461bcd60e51b815260206004820152600f60248201526e151c985b9cd9995c8819985a5b1959608a1b6044820152606401610427565b426000610b9387603c611df0565b610ba09060ff1683611e13565b6040805160808101825260ff808c16808352602080840188815284860187815260016060870181815233600081815260119096529489902097518854971660ff1997881617885592519087015551600286015551600390940180549415159490931693909317909155915192935090917f5ccb6a708d93869a4d241b6bcb83ed60a4813883729577909b4b6f81de4d8f8d90610c5e908b9089908890889060ff94909416845260208401929092526040830152606082015260800190565b60405180910390a35050505050505050565b336000908152601160205260409020600381015460ff16610cc75760405162461bcd60e51b815260206004820152601160248201527027379030b1ba34bb329039b2b9b9b4b7b760791b6044820152606401610427565b805460405142815260ff9091169033907f1cf02201704e6bba00f705100a89d4e67b0778f2a09eff2fefcf117dcb026b2e9060200160405180910390a3600301805460ff19169055565b6000546060908210610d355760405162461bcd60e51b815260040161042790611bbb565b60008281548110610d4857610d48611c39565b906000526020600020018054610d5d90611c4f565b80601f0160208091040260200160405190810160405280929190818152602001828054610d8990611c4f565b8015610dd65780601f10610dab57610100808354040283529160200191610dd6565b820191906000526020600020905b815481529060010190602001808311610db957829003601f168201915b50505050509050919050565b6000838214610e2b5760405162461bcd60e51b8152602060048201526015602482015274082e4e4c2f240d8cadccee8d040dad2e6dac2e8c6d605b1b6044820152606401610427565b60005b84811015610ed057600154868683818110610e4b57610e4b611c39565b905060200201351015610ebe576001868683818110610e6c57610e6c611c39565b9050602002013581548110610e8357610e83611c39565b9060005260206000200154848483818110610ea057610ea0611c39565b90506020020135610eb19190611dc0565b610ebb9083611e13565b91505b80610ec881611c20565b915050610e2e565b50949350505050565b60028160058110610ee957600080fd5b6003020180549091508190610efd90611c4f565b80601f0160208091040260200160405190810160405280929190818152602001828054610f2990611c4f565b8015610f765780601f10610f4b57610100808354040283529160200191610f76565b820191906000526020600020905b815481529060010190602001808311610f5957829003601f168201915b50505050600183015460029093015491929160ff16905083565b6001600160a01b03811660009081526011602090815260408083208151608081018352815460ff908116825260018301549482019490945260028201549281019290925260030154909116158015606083018190528392839283928391610ffa5750816040015142105b825160208401516040909401519099939850965094509092505050565b82811461105e5760405162461bcd60e51b8152602060048201526015602482015274082e4e4c2f240d8cadccee8d040dad2e6dac2e8c6d605b1b6044820152606401610427565b826110ab5760405162461bcd60e51b815260206004820152601f60248201527f4d7573742073656c6c206174206c65617374206f6e65207265736f75726365006044820152606401610427565b6000805b848110156111cf576001548686838181106110cc576110cc611c39565b90506020020135106110f05760405162461bcd60e51b815260040161042790611bbb565b600084848381811061110457611104611c39565b90506020020135116111585760405162461bcd60e51b815260206004820152601760248201527f416d6f756e74206d75737420626520706f7369746976650000000000000000006044820152606401610427565b600186868381811061116c5761116c611c39565b905060200201358154811061118357611183611c39565b90600052602060002001548484838181106111a0576111a0611c39565b905060200201356111b19190611dc0565b6111bb9083611e13565b9150806111c781611c20565b9150506110af565b50600081116112205760405162461bcd60e51b815260206004820152601c60248201527f546f74616c2076616c7565206d75737420626520706f736974697665000000006044820152606401610427565b600061123482670de0b6b3a7640000611dc0565b6040516340c10f1960e01b8152336004820152602481018290529091507f00000000000000000000000000000000000000000000000000000000000000006001600160a01b0316906340c10f1990604401600060405180830381600087803b15801561129f57600080fd5b505af11580156112b3573d6000803e3d6000fd5b5050505080601260008282546112c99190611e13565b909155505033600090815260136020526040812080548392906112ed908490611e13565b909155505060405133907f34cdaaf32cb750c6d0c8f0fa30220665464484aaea3eb4db3b69d7596e39c7769061132e90899089908990899089904290611e58565b60405180910390a2505050505050565b600060058260ff16106113635760405162461bcd60e51b815260040161042790611d57565b60028260ff166005811061137957611379611c39565b60030201600101549050919050565b6113906118da565b60058260ff16106113b35760405162461bcd60e51b815260040161042790611d57565b60028260ff16600581106113c9576113c9611c39565b600302016040518060600160405290816000820180546113e890611c4f565b80601f016020809104026020016040519081016040528092919081815260200182805461141490611c4f565b80156114615780601f1061143657610100808354040283529160200191611461565b820191906000526020600020905b81548152906001019060200180831161144457829003601f168201915b505050918352505060018201546020820152600282015460409091019060ff16600481111561149257611492611ada565b60048111156114a3576114a3611ada565b90525092915050565b600081815481106114bc57600080fd5b9060005260206000200160009150905080546114d790611c4f565b80601f016020809104026020016040519081016040528092919081815260200182805461150390611c4f565b80156115505780601f1061152557610100808354040283529160200191611550565b820191906000526020600020905b81548152906001019060200180831161153357829003601f168201915b505050505081565b600060058360ff161061157d5760405162461bcd60e51b815260040161042790611d57565b60008260ff16116115d05760405162461bcd60e51b815260206004820152601860248201527f4d696e75746573206d75737420626520706f73697469766500000000000000006044820152606401610427565b8160ff1660028460ff16600581106115ea576115ea611c39565b60030201600101546115fc9190611dc0565b9392505050565b600060058260ff16106116285760405162461bcd60e51b815260040161042790611d57565b8160ff166000036116c45760405163f86a3c9360e01b81526001600160a01b0384811660048301527f0000000000000000000000000000000000000000000000000000000000000000169063f86a3c9390602401602060405180830381865afa158015611699573d6000803e3d6000fd5b505050506040513d601f19601f820116820180604052508101906116bd9190611be8565b90506105a9565b60405163f86a3c9360e01b81526001600160a01b0384811660048301527f0000000000000000000000000000000000000000000000000000000000000000169063f86a3c9390602401602060405180830381865afa15801561172a573d6000803e3d6000fd5b505050506040513d601f19601f8201168201806040525081019061174e9190611be8565b61175a575060006105a9565b604051636dbbe68960e01b81526001600160a01b0384811660048301526000917f000000000000000000000000000000000000000000000000000000000000000090911690636dbbe68990602401608060405180830381865afa1580156117c5573d6000803e3d6000fd5b505050506040513d601f19601f820116820180604052508101906117e99190611d7e565b505091505060028360ff166005811061180457611804611c39565b600302016002015460ff16600481111561182057611820611ada565b81600481111561183257611832611ada565b10156118425760009150506105a9565b6001600160a01b0384166000908152601160209081526040918290208251608081018452815460ff908116825260018301549382019390935260028201549381019390935260030154161580156060830152806118a957508360ff16816000015160ff1614155b156118b9576000925050506105a9565b806040015142106118cf576000925050506105a9565b506001949350505050565b604051806060016040528060608152602001600081526020016000600481111561190657611906611ada565b905290565b60006020828403121561191d57600080fd5b5035919050565b80356001600160a01b038116811461193b57600080fd5b919050565b60006020828403121561195257600080fd5b6115fc82611924565b803560ff8116811461193b57600080fd5b6000806040838503121561197f57600080fd5b6119888361195b565b91506119966020840161195b565b90509250929050565b6000815180845260005b818110156119c5576020818501810151868301820152016119a9565b506000602082860101526020601f19601f83011685010191505092915050565b6020815260006115fc602083018461199f565b60008083601f840112611a0a57600080fd5b50813567ffffffffffffffff811115611a2257600080fd5b6020830191508360208260051b8501011115611a3d57600080fd5b9250929050565b60008060008060408587031215611a5a57600080fd5b843567ffffffffffffffff80821115611a7257600080fd5b611a7e888389016119f8565b90965094506020870135915080821115611a9757600080fd5b50611aa4878288016119f8565b95989497509550505050565b60008060408385031215611ac357600080fd5b611acc83611924565b946020939093013593505050565b634e487b7160e01b600052602160045260246000fd5b60058110611b0e57634e487b7160e01b600052602160045260246000fd5b9052565b606081526000611b25606083018661199f565b9050836020830152611b3a6040830184611af0565b949350505050565b600060208284031215611b5457600080fd5b6115fc8261195b565b602081526000825160606020840152611b79608084018261199f565b9050602084015160408401526040840151611b976060850182611af0565b509392505050565b60008060408385031215611bb257600080fd5b61198883611924565b602080825260139082015272125b9d985b1a59081b585d195c9a585b081251606a1b604082015260600190565b600060208284031215611bfa57600080fd5b815180151581146115fc57600080fd5b634e487b7160e01b600052601160045260246000fd5b600060018201611c3257611c32611c0a565b5060010190565b634e487b7160e01b600052603260045260246000fd5b600181811c90821680611c6357607f821691505b602082108103611c8357634e487b7160e01b600052602260045260246000fd5b50919050565b600060208083526000845481600182811c915080831680611cab57607f831692505b8583108103611cc857634e487b7160e01b85526022600452602485fd5b878601838152602001818015611ce55760018114611cfb57611d26565b60ff198616825284151560051b82019650611d26565b60008b81526020902060005b86811015611d2057815484820152908501908901611d07565b83019750505b50949998505050505050505050565b600082611d5257634e487b7160e01b600052601260045260246000fd5b500490565b6020808252600d908201526c125b9d985b1a59081b195d995b609a1b604082015260600190565b60008060008060808587031215611d9457600080fd5b84519350602085015160058110611daa57600080fd5b6040860151606090960151949790965092505050565b80820281158282048414176105a9576105a9611c0a565b600060208284031215611de957600080fd5b5051919050565b60ff8181168382160290811690818114611e0c57611e0c611c0a565b5092915050565b808201808211156105a9576105a9611c0a565b81835260006001600160fb1b03831115611e3f57600080fd5b8260051b80836020870137939093016020019392505050565b608081526000611e6c60808301888a611e26565b8281036020840152611e7f818789611e26565b604084019590955250506060015294935050505056fea2646970667358221220a39eb422dc257bd537986c76c363cb92389741f2f6997138f078ea6c8870f38f64736f6c63430008140033",
  "linkReferences": {},
  "deployedLinkReferences": {}
}