{
  "_format": "hh-sol-artifact-1",
  "contractName": "Game",
  "sourceName": "contracts/Game.sol",
  "abi": [
    {
      "inputs": [
        {
          "internalType": "address",
          "name": "_goldToken",
          "type": "address"
        }
      ],
      "stateMutability": "nonpayable",
      "type": "constructor"
    },
    {
      "anonymous": false,
      "inputs": [
        {
          "indexed": true,
          "internalType": "address",
          "name": "player",
          "type": "address"
        },
        {
          "indexed": false,
          "internalType": "uint256",
          "name": "coal",
          "type": "uint256"
        },
        {
          "indexed": false,
          "internalType": "uint256",
          "name": "iron",
          "type": "uint256"
        },
        {
          "indexed": false,
          "internalType": "uint256",
          "name": "diamond",
          "type": "uint256"
        },
        {
          "indexed": false,
          "internalType": "uint256",
          "name": "goldEarned",
          "type": "uint256"
        },
        {
          "indexed": false,
          "internalType": "uint256",
          "name": "timestamp",
          "type": "uint256"
        }
      ],
      "name": "Sold",
      "type": "event"
    },
    {
      "inputs": [],
      "name": "COAL_VALUE",
      "outputs": [
        {
          "internalType": "uint256",
          "name": "",
          "type": "uint256"
        }
      ],
      "stateMutability": "view",
      "type": "function"
    },
    {
      "inputs": [],
      "name": "DIAMOND_VALUE",
      "outputs": [
        {
          "internalType": "uint256",
          "name": "",
          "type": "uint256"
        }
      ],
      "stateMutability": "view",
      "type": "function"
    },
    {
      "inputs": [],
      "name": "IRON_VALUE",
      "outputs": [
        {
          "internalType": "uint256",
          "name": "",
          "type": "uint256"
        }
      ],
      "stateMutability": "view",
      "type": "function"
    },
    {
      "inputs": [
        {
          "internalType": "address",
          "name": "player",
          "type": "address"
        }
      ],
      "name": "getPlayerEarnings",
      "outputs": [
        {
          "internalType": "uint256",
          "name": "",
          "type": "uint256"
        }
      ],
      "stateMutability": "view",
      "type": "function"
    },
    {
      "inputs": [],
      "name": "goldToken",
      "outputs": [
        {
          "internalType": "contract GoldToken",
          "name": "",
          "type": "address"
        }
      ],
      "stateMutability": "view",
      "type": "function"
    },
    {
      "inputs": [
        {
          "internalType": "address",
          "name": "",
          "type": "address"
        }
      ],
      "name": "playerSales",
      "outputs": [
        {
          "internalType": "uint256",
          "name": "",
          "type": "uint256"
        }
      ],
      "stateMutability": "view",
      "type": "function"
    },
    {
      "inputs": [
        {
          "internalType": "uint256",
          "name": "coal",
          "type": "uint256"
        },
        {
          "internalType": "uint256",
          "name": "iron",
          "type": "uint256"
        },
        {
          "internalType": "uint256",
          "name": "diamond",
          "type": "uint256"
        }
      ],
      "name": "previewSale",
      "outputs": [
        {
          "internalType": "uint256",
          "name": "goldAmount",
          "type": "uint256"
        }
      ],
      "stateMutability": "pure",
      "type": "function"
    },
    {
      "inputs": [
        {
          "internalType": "uint256",
          "name": "coal",
          "type": "uint256"
        },
        {
          "internalType": "uint256",
          "name": "iron",
          "type": "uint256"
        },
        {
          "internalType": "uint256",
          "name": "diamond",
          "type": "uint256"
        }
      ],
      "name": "sellResources",
      "outputs": [],
      "stateMutability": "nonpayable",
      "type": "function"
    },
    {
      "inputs": [],
      "name": "totalSales",
      "outputs": [
        {
          "internalType": "uint256",
          "name": "",
          "type": "uint256"
        }
      ],
      "stateMutability": "view",
      "type": "function"
    }
  ],
  "bytecode": "0x60a060405234801561001057600080fd5b5060405161058138038061058183398101604081905261002f9161009a565b6001600160a01b0381166100895760405162461bcd60e51b815260206004820152601560248201527f496e76616c696420746f6b656e20616464726573730000000000000000000000604482015260640160405180910390fd5b6001600160a01b03166080526100ca565b6000602082840312156100ac57600080fd5b81516001600160a01b03811681146100c357600080fd5b9392505050565b6080516104966100eb6000396000818160e1015261026e01526104966000f3fe608060405234801561001057600080fd5b50600436106100935760003560e01c8063bfb8225511610066578063bfb822551461011b578063c64d0e2714610123578063c6607b6f14610136578063d35f112b1461013e578063f6c470301461014657600080fd5b80631bd78ca41461009857806340205762146100be5780636605ff66146100d357806394002b57146100dc575b600080fd5b6100ab6100a63660046103a2565b610166565b6040519081526020015b60405180910390f35b6100d16100cc3660046103d2565b610198565b005b6100ab60005481565b6101037f000000000000000000000000000000000000000000000000000000000000000081565b6040516001600160a01b0390911681526020016100b5565b6100ab600a81565b6100ab6101313660046103d2565b610363565b6100ab600381565b6100ab600181565b6100ab6101543660046103a2565b60016020526000908152604090205481565b6001600160a01b03811660009081526001602052604081205461019290670de0b6b3a764000090610414565b92915050565b60008311806101a75750600082115b806101b25750600081115b6102025760405162461bcd60e51b815260206004820152601f60248201527f4d7573742073656c6c206174206c65617374206f6e65207265736f7572636500604482015260640160405180910390fd5b600061020f600a83610436565b61021a600385610436565b610225600187610436565b61022f919061044d565b610239919061044d565b9050600061024f82670de0b6b3a7640000610436565b6040516340c10f1960e01b8152336004820152602481018290529091507f00000000000000000000000000000000000000000000000000000000000000006001600160a01b0316906340c10f1990604401600060405180830381600087803b1580156102ba57600080fd5b505af11580156102ce573d6000803e3d6000fd5b50505050806000808282546102e3919061044d565b9091555050336000908152600160205260408120805483929061030790849061044d565b909155505060408051868152602081018690529081018490526060810183905242608082015233907f917d0fe1b6c3328f12a0177d25bf1b7d9e963116addad0bfc06b0cdcb64276039060a00160405180910390a25050505050565b6000610370600a83610436565b61037b600385610436565b610386600187610436565b610390919061044d565b61039a919061044d565b949350505050565b6000602082840312156103b457600080fd5b81356001600160a01b03811681146103cb57600080fd5b9392505050565b6000806000606084860312156103e757600080fd5b505081359360208301359350604090920135919050565b634e487b7160e01b600052601160045260246000fd5b60008261043157634e487b7160e01b600052601260045260246000fd5b500490565b8082028115828204841417610192576101926103fe565b80820180821115610192576101926103fe56fea26469706673582212204d69b4509226b8d986594535c35ca3217ff9988dcd75fa3e61c5a82aab7ac6f664736f6c63430008140033",
  "linkReferences": {},
  "deployedLinkReferences": {}
}