{
  "_format": "hh-sol-artifact-1",
  "contractName": "GemNFT",
  "sourceName": "contracts/GemNFT.sol",
  "abi": [
    {
      "inputs": [],
      "stateMutability": "nonpayable",
      "type": "constructor"
    },
    {
      "inputs": [
        {
          "internalType": "address",
          "name": "sender",
          "type": "address"
        },
        {
          "internalType": "uint256",
          "name": "tokenId",
          "type": "uint256"
        },
        {
          "internalType": "address",
          "name": "owner",
          "type": "address"
        }
      ],
      "name": "ERC721IncorrectOwner",
      "type": "error"
    },
    {
      "inputs": [
        {
          "internalType": "address",
          "name": "operator",
          "type": "address"
        },
        {
          "internalType": "uint256",
          "name": "tokenId",
          "type": "uint256"
        }
      ],
      "name": "ERC721InsufficientApproval",
      "type": "error"
    },
    {
      "inputs": [
        {
          "internalType": "address",
          "name": "approver",
          "type": "address"
        }
      ],
      "name": "ERC721InvalidApprover",
      "type": "error"
    },
    {
      "inputs": [
        {
          "internalType": "address",
          "name": "operator",
          "type": "address"
        }
      ],
      "name": "ERC721InvalidOperator",
      "type": "error"
    },
    {
      "inputs": [
        {
          "internalType": "address",
          "name": "owner",
          "type": "address"
        }
      ],
      "name": "ERC721InvalidOwner",
      "type": "error"
    },
    {
      "inputs": [
        {
          "internalType": "address",
          "name": "receiver",
          "type": "address"
        }
      ],
      "name": "ERC721InvalidReceiver",
      "type": "error"
    },
    {
      "inputs": [
        {
          "internalType": "address",
          "name": "sender",
          "type": "address"
        }
      ],
      "name": "ERC721InvalidSender",
      "type": "error"
    },
    {
      "inputs": [
        {
          "internalType": "uint256",
          "name": "tokenId",
          "type": "uint256"
        }
      ],
      "name": "ERC721NonexistentToken",
      "type": "error"
    },
    {
      "inputs": [
        {
          "internalType": "address",
          "name": "owner",
          "type": "address"
        }
      ],
      "name": "OwnableInvalidOwner",
      "type": "error"
    },
    {
      "inputs": [
        {
          "internalType": "address",
          "name": "account",
          "type": "address"
        }
      ],
      "name": "OwnableUnauthorizedAccount",
      "type": "error"
    },
    {
      "anonymous": false,
      "inputs": [
        {
          "indexed": true,
          "internalType": "address",
          "name": "owner",
          "type": "address"
        },
        {
          "indexed": true,
          "internalType": "address",
          "name": "approved",
          "type": "address"
        },
        {
          "indexed": true,
          "internalType": "uint256",
          "name": "tokenId",
          "type": "uint256"
        }
      ],
      "name": "Approval",
      "type": "event"
    },
    {
      "anonymous": false,
      "inputs": [
        {
          "indexed": true,
          "internalType": "address",
          "name": "owner",
          "type": "address"
        },
        {
          "indexed": true,
          "internalType": "address",
          "name": "operator",
          "type": "address"
        },
        {
          "indexed": false,
          "internalType": "bool",
          "name": "approved",
          "type": "bool"
        }
      ],
      "name": "ApprovalForAll",
      "type": "event"
    },
    {
      "anonymous": false,
      "inputs": [
        {
          "indexed": true,
          "internalType": "address",
          "name": "player",
          "type": "address"
        },
        {
          "indexed": false,
          "internalType": "uint256",
          "name": "tokenId",
          "type": "uint256"
        },
        {
          "indexed": false,
          "internalType": "enum GemNFT.GemType",
          "name": "gemType",
          "type": "uint8"
        },
        {
          "indexed": false,
          "internalType": "string",
          "name": "oreSource",
          "type": "string"
        }
      ],
      "name": "GemMinted",
      "type": "event"
    },
    {
      "anonymous": false,
      "inputs": [
        {
          "indexed": true,
          "internalType": "address",
          "name": "previousOwner",
          "type": "address"
        },
        {
          "indexed": true,
          "internalType": "address",
          "name": "newOwner",
          "type": "address"
        }
      ],
      "name": "OwnershipTransferred",
      "type": "event"
    },
    {
      "anonymous": false,
      "inputs": [
        {
          "indexed": true,
          "internalType": "address",
          "name": "from",
          "type": "address"
        },
        {
          "indexed": true,
          "internalType": "address",
          "name": "to",
          "type": "address"
        },
        {
          "indexed": true,
          "internalType": "uint256",
          "name": "tokenId",
          "type": "uint256"
        }
      ],
      "name": "Transfer",
      "type": "event"
    },
    {
      "inputs": [
        {
          "internalType": "address",
          "name": "to",
          "type": "address"
        },
        {
          "internalType": "uint256",
          "name": "tokenId",
          "type": "uint256"
        }
      ],
      "name": "approve",
      "outputs": [],
      "stateMutability": "nonpayable",
      "type": "function"
    },
    {
      "inputs": [
        {
          "internalType": "address",
          "name": "owner",
          "type": "address"
        }
      ],
      "name": "balanceOf",
      "outputs": [
        {
          "internalType": "uint256",
          "name": "",
          "type": "uint256"
        }
      ],
      "stateMutability": "view",
      "type": "function"
    },
    {
      "inputs": [],
      "name": "gameContract",
      "outputs": [
        {
          "internalType": "address",
          "name": "",
          "type": "address"
        }
      ],
      "stateMutability": "view",
      "type": "function"
    },
    {
      "inputs": [
        {
          "internalType": "uint256",
          "name": "",
          "type": "uint256"
        }
      ],
      "name": "gems",
      "outputs": [
        {
          "internalType": "enum GemNFT.GemType",
          "name": "gemType",
          "type": "uint8"
        },
        {
          "internalType": "uint256",
          "name": "mintedAt",
          "type": "uint256"
        },
        {
          "internalType": "string",
          "name": "oreSource",
          "type": "string"
        }
      ],
      "stateMutability": "view",
      "type": "function"
    },
    {
      "inputs": [
        {
          "internalType": "uint256",
          "name": "tokenId",
          "type": "uint256"
        }
      ],
      "name": "getApproved",
      "outputs": [
        {
          "internalType": "address",
          "name": "",
          "type": "address"
        }
      ],
      "stateMutability": "view",
      "type": "function"
    },
    {
      "inputs": [
        {
          "internalType": "uint256",
          "name": "tokenId",
          "type": "uint256"
        }
      ],
      "name": "getGem",
      "outputs": [
        {
          "internalType": "enum GemNFT.GemType",
          "name": "gemType",
          "type": "uint8"
        },
        {
          "internalType": "uint256",
          "name": "mintedAt",
          "type": "uint256"
        },
        {
          "internalType": "string",
          "name": "oreSource",
          "type": "string"
        }
      ],
      "stateMutability": "view",
      "type": "function"
    },
    {
      "inputs": [
        {
          "internalType": "enum GemNFT.GemType",
          "name": "gemType",
          "type": "uint8"
        }
      ],
      "name": "getGemName",
      "outputs": [
        {
          "internalType": "string",
          "name": "name",
          "type": "string"
        }
      ],
      "stateMutability": "pure",
      "type": "function"
    },
    {
      "inputs": [
        {
          "internalType": "address",
          "name": "player",
          "type": "address"
        }
      ],
      "name": "getPlayerGems",
      "outputs": [
        {
          "internalType": "uint256[]",
          "name": "",
          "type": "uint256[]"
        }
      ],
      "stateMutability": "view",
      "type": "function"
    },
    {
      "inputs": [
        {
          "internalType": "address",
          "name": "owner",
          "type": "address"
        },
        {
          "internalType": "address",
          "name": "operator",
          "type": "address"
        }
      ],
      "name": "isApprovedForAll",
      "outputs": [
        {
          "internalType": "bool",
          "name": "",
          "type": "bool"
        }
      ],
      "stateMutability": "view",
      "type": "function"
    },
    {
      "inputs": [
        {
          "internalType": "address",
          "name": "to",
          "type": "address"
        },
        {
          "internalType": "enum GemNFT.GemType",
          "name": "gemType",
          "type": "uint8"
        },
        {
          "internalType": "string",
          "name": "oreSource",
          "type": "string"
        }
      ],
      "name": "mintGem",
      "outputs": [],
      "stateMutability": "nonpayable",
      "type": "function"
    },
    {
      "inputs": [],
      "name": "name",
      "outputs": [
        {
          "internalType": "string",
          "name": "",
          "type": "string"
        }
      ],
      "stateMutability": "view",
      "type": "function"
    },
    {
      "inputs": [],
      "name": "owner",
      "outputs": [
        {
          "internalType": "address",
          "name": "",
          "type": "address"
        }
      ],
      "stateMutability": "view",
      "type": "function"
    },
    {
      "inputs": [
        {
          "internalType": "uint256",
          "name": "tokenId",
          "type": "uint256"
        }
      ],
      "name": "ownerOf",
      "outputs": [
        {
          "internalType": "address",
          "name": "",
          "type": "address"
        }
      ],
      "stateMutability": "view",
      "type": "function"
    },
    {
      "inputs": [
        {
          "internalType": "address",
          "name": "",
          "type": "address"
        },
        {
          "internalType": "uint256",
          "name": "",
          "type": "uint256"
        }
      ],
      "name": "playerGems",
      "outputs": [
        {
          "internalType": "uint256",
          "name": "",
          "type": "uint256"
        }
      ],
      "stateMutability": "view",
      "type": "function"
    },
    {
      "inputs": [],
      "name": "renounceOwnership",
      "outputs": [],
      "stateMutability": "nonpayable",
      "type": "function"
    },
    {
      "inputs": [
        {
          "internalType": "address",
          "name": "from",
          "type": "address"
        },
        {
          "internalType": "address",
          "name": "to",
          "type": "address"
        },
        {
          "internalType": "uint256",
          "name": "tokenId",
          "type": "uint256"
        }
      ],
      "name": "safeTransferFrom",
      "outputs": [],
      "stateMutability": "nonpayable",
      "type": "function"
    },
    {
      "inputs": [
        {
          "internalType": "address",
          "name": "from",
          "type": "address"
        },
        {
          "internalType": "address",
          "name": "to",
          "type": "address"
        },
        {
          "internalType": "uint256",
          "name": "tokenId",
          "type": "uint256"
        },
        {
          "internalType": "bytes",
          "name": "data",
          "type": "bytes"
        }
      ],
      "name": "safeTransferFrom",
      "outputs": [],
      "stateMutability": "nonpayable",
      "type": "function"
    },
    {
      "inputs": [
        {
          "internalType": "address",
          "name": "operator",
          "type": "address"
        },
        {
          "internalType": "bool",
          "name": "approved",
          "type": "bool"
        }
      ],
      "name": "setApprovalForAll",
      "outputs": [],
      "stateMutability": "nonpayable",
      "type": "function"
    },
    {
      "inputs": [
        {
          "internalType": "address",
          "name": "_gameContract",
          "type": "address"
        }
      ],
      "name": "setGameContract",
      "outputs": [],
      "stateMutability": "nonpayable",
      "type": "function"
    },
    {
      "inputs": [
        {
          "internalType": "bytes4",
          "name": "interfaceId",
          "type": "bytes4"
        }
      ],
      "name": "supportsInterface",
      "outputs": [
        {
          "internalType": "bool",
          "name": "",
          "type": "bool"
        }
      ],
      "stateMutability": "view",
      "type": "function"
    },
    {
      "inputs": [],
      "name": "symbol",
      "outputs": [
        {
          "internalType": "string",
          "name": "",
          "type": "string"
        }
      ],
      "stateMutability": "view",
      "type": "function"
    },
    {
      "inputs": [
        {
          "internalType": "uint256",
          "name": "tokenId",
          "type": "uint256"
        }
      ],
      "name": "tokenURI",
      "outputs": [
        {
          "internalType": "string",
          "name": "",
          "type": "string"
        }
      ],
      "stateMutability": "view",
      "type": "function"
    },
    {
      "inputs": [],
      "name": "totalSupply",
      "outputs": [
        {
          "internalType": "uint256",
          "name": "",
          "type": "uint256"
        }
      ],
      "stateMutability": "view",
      "type": "function"
    },
    {
      "inputs": [
        {
          "internalType": "address",
          "name": "from",
          "type": "address"
        },
        {
          "internalType": "address",
          "name": "to",
          "type": "address"
        },
        {
          "internalType": "uint256",
          "name": "tokenId",
          "type": "uint256"
        }
      ],
      "name": "transferFrom",
      "outputs": [],
      "stateMutability": "nonpayable",
      "type": "function"
    },
    {
      "inputs": [
        {
          "internalType": "address",
          "name": "newOwner",
          "type": "address"
        }
      ],
      "name": "transferOwnership",
      "outputs": [],
      "stateMutability": "nonpayable",
      "type": "function"
    }
  ],
  "bytecode": "0x608060405260016008553480156200001657600080fd5b50336040518060400160405280600d81526020016c526f636b636861696e2047656d60981b8152506040518060400160405280600381526020016247454d60e81b81525081600090816200006b9190620001b5565b5060016200007a8282620001b5565b5050506001600160a01b038116620000ac57604051631e4fbdf760e01b81526000600482015260240160405180910390fd5b620000b781620000be565b5062000281565b600680546001600160a01b038381166001600160a01b0319831681179093556040519116919082907f8be0079c531659141344cd1fd0a4f28419497f9722a3daafe3b4186f6b6457e090600090a35050565b634e487b7160e01b600052604160045260246000fd5b600181811c908216806200013b57607f821691505b6020821081036200015c57634e487b7160e01b600052602260045260246000fd5b50919050565b601f821115620001b057600081815260208120601f850160051c810160208610156200018b5750805b601f850160051c820191505b81811015620001ac5782815560010162000197565b5050505b505050565b81516001600160401b03811115620001d157620001d162000110565b620001e981620001e2845462000126565b8462000162565b602080601f831160018114620002215760008415620002085750858301515b600019600386901b1c1916600185901b178555620001ac565b600085815260208120601f198616915b82811015620002525788860151825594840194600190910190840162000231565b5085821015620002715787850151600019600388901b60f8161c191681555b5050505050600190811b01905550565b611d1880620002916000396000f3fe608060405234801561001057600080fd5b50600436106101735760003560e01c806395d89b41116100de578063d023dcf011610097578063f02bcb7a11610071578063f02bcb7a14610332578063f2fde38b14610345578063f61a73fc14610358578063fa171c651461037857600080fd5b8063d023dcf0146102f9578063d3f330091461030c578063e985e9c51461031f57600080fd5b806395d89b4114610283578063a1f0406d1461028b578063a22cb465146102ad578063aa723bb7146102c0578063b88d4fde146102d3578063c87b56dd146102e657600080fd5b8063405ebd4d11610130578063405ebd4d1461021e57806342842e0e146102315780636352211e1461024457806370a0823114610257578063715018a61461026a5780638da5cb5b1461027257600080fd5b806301ffc9a71461017857806306fdde03146101a0578063081812fc146101b5578063095ea7b3146101e057806318160ddd146101f557806323b872dd1461020b575b600080fd5b61018b61018636600461169a565b61038b565b60405190151581526020015b60405180910390f35b6101a86103dd565b6040516101979190611707565b6101c86101c336600461171a565b61046f565b6040516001600160a01b039091168152602001610197565b6101f36101ee36600461174f565b610498565b005b6101fd6104a7565b604051908152602001610197565b6101f3610219366004611779565b6104bd565b6101f361022c3660046117b5565b61054d565b6101f361023f366004611779565b6105c5565b6101c861025236600461171a565b6105e5565b6101fd6102653660046117b5565b6105f0565b6101f3610638565b6006546001600160a01b03166101c8565b6101a861064c565b61029e61029936600461171a565b61065b565b60405161019793929190611808565b6101f36102bb36600461182e565b61070a565b61029e6102ce36600461171a565b610715565b6101f36102e13660046118f6565b610884565b6101a86102f436600461171a565b61089c565b6101fd61030736600461174f565b610936565b6007546101c8906001600160a01b031681565b61018b61032d366004611972565b610967565b6101f36103403660046119b4565b610995565b6101f36103533660046117b5565b610b3d565b61036b6103663660046117b5565b610b7b565b6040516101979190611a26565b6101a8610386366004611a6a565b610be7565b60006001600160e01b031982166380ac58cd60e01b14806103bc57506001600160e01b03198216635b5e139f60e01b145b806103d757506301ffc9a760e01b6001600160e01b03198316145b92915050565b6060600080546103ec90611a85565b80601f016020809104026020016040519081016040528092919081815260200182805461041890611a85565b80156104655780601f1061043a57610100808354040283529160200191610465565b820191906000526020600020905b81548152906001019060200180831161044857829003601f168201915b5050505050905090565b600061047a82610dec565b506000828152600460205260409020546001600160a01b03166103d7565b6104a3828233610e25565b5050565b600060016008546104b89190611ad5565b905090565b6001600160a01b0382166104ec57604051633250574960e11b8152600060048201526024015b60405180910390fd5b60006104f9838333610e32565b9050836001600160a01b0316816001600160a01b031614610547576040516364283d7b60e01b81526001600160a01b03808616600483015260248201849052821660448201526064016104e3565b50505050565b610555610f70565b6001600160a01b0381166105a35760405162461bcd60e51b8152602060048201526015602482015274125b9d985b1a590819d85b594818dbdb9d1c9858dd605a1b60448201526064016104e3565b600780546001600160a01b0319166001600160a01b0392909216919091179055565b6105e083838360405180602001604052806000815250610884565b505050565b60006103d782610dec565b60006001600160a01b03821661061c576040516322718ad960e21b8152600060048201526024016104e3565b506001600160a01b031660009081526003602052604090205490565b610640610f70565b61064a6000610f9d565b565b6060600180546103ec90611a85565b60096020526000908152604090208054600182015460028301805460ff90931693919261068790611a85565b80601f01602080910402602001604051908101604052809291908181526020018280546106b390611a85565b80156107005780601f106106d557610100808354040283529160200191610700565b820191906000526020600020905b8154815290600101906020018083116106e357829003601f168201915b5050505050905083565b6104a3338383610fef565b60008060608161073a856000908152600260205260409020546001600160a01b031690565b6001600160a01b0316036107875760405162461bcd60e51b8152602060048201526014602482015273151bdad95b88191bd95cc81b9bdd08195e1a5cdd60621b60448201526064016104e3565b6000848152600960205260408082208151606081019092528054829060ff1660078111156107b7576107b76117d0565b60078111156107c8576107c86117d0565b8152602001600182015481526020016002820180546107e690611a85565b80601f016020809104026020016040519081016040528092919081815260200182805461081290611a85565b801561085f5780601f106108345761010080835404028352916020019161085f565b820191906000526020600020905b81548152906001019060200180831161084257829003601f168201915b5050509190925250508151602083015160409093015190989297509550909350505050565b61088f8484846104bd565b610547338585858561108e565b60606108a782610dec565b5060006108e46040805180820190915260208082527f68747470733a2f2f726f636b636861696e2e67616d652f6170692f67656d732f9082015290565b90506000815111610904576040518060200160405280600081525061092f565b8061090e846111b9565b60405160200161091f929190611ae8565b6040516020818303038152906040525b9392505050565b600a602052816000526040600020818154811061095257600080fd5b90600052602060002001600091509150505481565b6001600160a01b03918216600090815260056020908152604080832093909416825291909152205460ff1690565b6007546001600160a01b031633146109e45760405162461bcd60e51b815260206004820152601260248201527113db9b1e4811d85b594818dbdb9d1c9858dd60721b60448201526064016104e3565b6001600160a01b038316610a2e5760405162461bcd60e51b8152602060048201526011602482015270125b9d985b1a59081c9958da5c1a595b9d607a1b60448201526064016104e3565b6008805460009182610a3f83611b17565b919050559050610a4f848261124c565b6040518060600160405280846007811115610a6c57610a6c6117d0565b8152426020808301919091526040918201859052600084815260099091522081518154829060ff19166001836007811115610aa957610aa96117d0565b02179055506020820151600182015560408201516002820190610acc9082611b76565b5050506001600160a01b0384166000818152600a6020908152604080832080546001810182559084529190922001839055517f579163a4366437d021fc271dfda1424d6e413b0216ef9235d24f1308af1ee62c90610b2f90849087908790611c36565b60405180910390a250505050565b610b45610f70565b6001600160a01b038116610b6f57604051631e4fbdf760e01b8152600060048201526024016104e3565b610b7881610f9d565b50565b6001600160a01b0381166000908152600a6020908152604091829020805483518184028101840190945280845260609392830182828015610bdb57602002820191906000526020600020905b815481526020019060010190808311610bc7575b50505050509050919050565b60606000826007811115610bfd57610bfd6117d0565b03610c225750506040805180820190915260048152635275627960e01b602082015290565b6001826007811115610c3657610c366117d0565b03610c5f575050604080518082019091526008815267536170706869726560c01b602082015290565b6002826007811115610c7357610c736117d0565b03610c9b575050604080518082019091526007815266115b595c985b1960ca1b602082015290565b6003826007811115610caf57610caf6117d0565b03610cd7575050604080518082019091526007815266111a585b5bdb9960ca1b602082015290565b6004826007811115610ceb57610ceb6117d0565b03610d115750506040805180820190915260058152642a37b830bd60d91b602082015290565b6005826007811115610d2557610d256117d0565b03610d4e575050604080518082019091526008815267105b595d1a1e5cdd60c21b602082015290565b6006826007811115610d6257610d626117d0565b03610d8d57505060408051808201909152600a815269417175616d6172696e6560b01b602082015290565b6007826007811115610da157610da16117d0565b03610dc957505060408051808201909152600781526614195c9a591bdd60ca1b602082015290565b50506040805180820190915260078152662ab735b737bbb760c91b602082015290565b6000818152600260205260408120546001600160a01b0316806103d757604051637e27328960e01b8152600481018490526024016104e3565b6105e08383836001611266565b6000828152600260205260408120546001600160a01b03168015610f21576001600160a01b0381166000908152600a60205260408120905b8154811015610f1e5785828281548110610e8657610e86611c5c565b906000526020600020015403610f0c5781548290610ea690600190611ad5565b81548110610eb657610eb6611c5c565b9060005260206000200154828281548110610ed357610ed3611c5c565b906000526020600020018190555081805480610ef157610ef1611c72565b60019003818190600052602060002001600090559055610f1e565b80610f1681611b17565b915050610e6a565b50505b6001600160a01b03851615610f5c576001600160a01b0385166000908152600a60209081526040822080546001810182559083529120018490555b610f6785858561136c565b95945050505050565b6006546001600160a01b0316331461064a5760405163118cdaa760e01b81523360048201526024016104e3565b600680546001600160a01b038381166001600160a01b0319831681179093556040519116919082907f8be0079c531659141344cd1fd0a4f28419497f9722a3daafe3b4186f6b6457e090600090a35050565b6001600160a01b03821661102157604051630b61174360e31b81526001600160a01b03831660048201526024016104e3565b6001600160a01b03838116600081815260056020908152604080832094871680845294825291829020805460ff191686151590811790915591519182527f17307eab39ab6107e8899845ad3d59bd9653f200f220920489ca2b5937696c31910160405180910390a3505050565b6001600160a01b0383163b156111b257604051630a85bd0160e11b81526001600160a01b0384169063150b7a02906110d0908890889087908790600401611c88565b6020604051808303816000875af192505050801561110b575060408051601f3d908101601f1916820190925261110891810190611cc5565b60015b611174573d808015611139576040519150601f19603f3d011682016040523d82523d6000602084013e61113e565b606091505b50805160000361116c57604051633250574960e11b81526001600160a01b03851660048201526024016104e3565b805160208201fd5b6001600160e01b03198116630a85bd0160e11b146111b057604051633250574960e11b81526001600160a01b03851660048201526024016104e3565b505b5050505050565b606060006111c683611465565b600101905060008167ffffffffffffffff8111156111e6576111e661186a565b6040519080825280601f01601f191660200182016040528015611210576020820181803683370190505b5090508181016020015b600019016f181899199a1a9b1b9c1cb0b131b232b360811b600a86061a8153600a850494508461121a57509392505050565b6104a382826040518060200160405280600081525061153d565b808061127a57506001600160a01b03821615155b1561133c57600061128a84610dec565b90506001600160a01b038316158015906112b65750826001600160a01b0316816001600160a01b031614155b80156112c957506112c78184610967565b155b156112f25760405163a9fbf51f60e01b81526001600160a01b03841660048201526024016104e3565b811561133a5783856001600160a01b0316826001600160a01b03167f8c5be1e5ebec7d5bd14f71427d1e84f3dd0314c0f7b2291e5b200ac8c7c3b92560405160405180910390a45b505b5050600090815260046020526040902080546001600160a01b0319166001600160a01b0392909216919091179055565b6000828152600260205260408120546001600160a01b039081169083161561139957611399818486611555565b6001600160a01b038116156113d7576113b6600085600080611266565b6001600160a01b038116600090815260036020526040902080546000190190555b6001600160a01b03851615611406576001600160a01b0385166000908152600360205260409020805460010190555b60008481526002602052604080822080546001600160a01b0319166001600160a01b0389811691821790925591518793918516917fddf252ad1be2c89b69c2b068fc378daa952ba7f163c4a11628f55a4df523b3ef91a4949350505050565b60008072184f03e93ff9f4daa797ed6e38ed64bf6a1f0160401b83106114a45772184f03e93ff9f4daa797ed6e38ed64bf6a1f0160401b830492506040015b6d04ee2d6d415b85acef810000000083106114d0576d04ee2d6d415b85acef8100000000830492506020015b662386f26fc1000083106114ee57662386f26fc10000830492506010015b6305f5e1008310611506576305f5e100830492506008015b612710831061151a57612710830492506004015b6064831061152c576064830492506002015b600a83106103d75760010192915050565b61154783836115b9565b6105e033600085858561108e565b61156083838361161e565b6105e0576001600160a01b03831661158e57604051637e27328960e01b8152600481018290526024016104e3565b60405163177e802f60e01b81526001600160a01b0383166004820152602481018290526044016104e3565b6001600160a01b0382166115e357604051633250574960e11b8152600060048201526024016104e3565b60006115f183836000610e32565b90506001600160a01b038116156105e0576040516339e3563760e11b8152600060048201526024016104e3565b60006001600160a01b0383161580159061167c5750826001600160a01b0316846001600160a01b0316148061165857506116588484610967565b8061167c57506000828152600460205260409020546001600160a01b038481169116145b949350505050565b6001600160e01b031981168114610b7857600080fd5b6000602082840312156116ac57600080fd5b813561092f81611684565b60005b838110156116d25781810151838201526020016116ba565b50506000910152565b600081518084526116f38160208601602086016116b7565b601f01601f19169290920160200192915050565b60208152600061092f60208301846116db565b60006020828403121561172c57600080fd5b5035919050565b80356001600160a01b038116811461174a57600080fd5b919050565b6000806040838503121561176257600080fd5b61176b83611733565b946020939093013593505050565b60008060006060848603121561178e57600080fd5b61179784611733565b92506117a560208501611733565b9150604084013590509250925092565b6000602082840312156117c757600080fd5b61092f82611733565b634e487b7160e01b600052602160045260246000fd5b6008811061180457634e487b7160e01b600052602160045260246000fd5b9052565b61181281856117e6565b826020820152606060408201526000610f6760608301846116db565b6000806040838503121561184157600080fd5b61184a83611733565b91506020830135801515811461185f57600080fd5b809150509250929050565b634e487b7160e01b600052604160045260246000fd5b600067ffffffffffffffff8084111561189b5761189b61186a565b604051601f8501601f19908116603f011681019082821181831017156118c3576118c361186a565b816040528093508581528686860111156118dc57600080fd5b858560208301376000602087830101525050509392505050565b6000806000806080858703121561190c57600080fd5b61191585611733565b935061192360208601611733565b925060408501359150606085013567ffffffffffffffff81111561194657600080fd5b8501601f8101871361195757600080fd5b61196687823560208401611880565b91505092959194509250565b6000806040838503121561198557600080fd5b61198e83611733565b915061199c60208401611733565b90509250929050565b80356008811061174a57600080fd5b6000806000606084860312156119c957600080fd5b6119d284611733565b92506119e0602085016119a5565b9150604084013567ffffffffffffffff8111156119fc57600080fd5b8401601f81018613611a0d57600080fd5b611a1c86823560208401611880565b9150509250925092565b6020808252825182820181905260009190848201906040850190845b81811015611a5e57835183529284019291840191600101611a42565b50909695505050505050565b600060208284031215611a7c57600080fd5b61092f826119a5565b600181811c90821680611a9957607f821691505b602082108103611ab957634e487b7160e01b600052602260045260246000fd5b50919050565b634e487b7160e01b600052601160045260246000fd5b818103818111156103d7576103d7611abf565b60008351611afa8184602088016116b7565b835190830190611b0e8183602088016116b7565b01949350505050565b600060018201611b2957611b29611abf565b5060010190565b601f8211156105e057600081815260208120601f850160051c81016020861015611b575750805b601f850160051c820191505b818110156111b057828155600101611b63565b815167ffffffffffffffff811115611b9057611b9061186a565b611ba481611b9e8454611a85565b84611b30565b602080601f831160018114611bd95760008415611bc15750858301515b600019600386901b1c1916600185901b1785556111b0565b600085815260208120601f198616915b82811015611c0857888601518255948401946001909101908401611be9565b5085821015611c265787850151600019600388901b60f8161c191681555b5050505050600190811b01905550565b838152611c4660208201846117e6565b606060408201526000610f6760608301846116db565b634e487b7160e01b600052603260045260246000fd5b634e487b7160e01b600052603160045260246000fd5b6001600160a01b0385811682528416602082015260408101839052608060608201819052600090611cbb908301846116db565b9695505050505050565b600060208284031215611cd757600080fd5b815161092f8161168456fea2646970667358221220c876fbbca7560de82c19f6c27fbe563298852798f4e523609f5a61dec0c324d664736f6c63430008140033",
  "linkReferences": {},
  "deployedLinkReferences": {}
}