{
  "_format": "hh-sol-artifact-1",
  "contractName": "PickaxeNFTV2",
  "sourceName": "contracts/PickaxeNFTV2.sol",
  "abi": [
    {
      "inputs": [
        {
          "internalType": "address",
          "name": "_goldToken",
          "type": "address"
        }
      ],
      "stateMutability": "nonpayable",
      "type": "constructor"
    },
    {
      "inputs": [
        {
          "internalType": "address",
          "name": "sender",
          "type": "address"
        },
        {
          "internalType": "uint256",
          "name": "tokenId",
          "type": "uint256"
        },
        {
          "internalType": "address",
          "name": "owner",
          "type": "address"
        }
      ],
      "name": "ERC721IncorrectOwner",
      "type": "error"
    },
    {
      "inputs": [
        {
          "internalType": "address",
          "name": "operator",
          "type": "address"
        },
        {
          "internalType": "uint256",
          "name": "tokenId",
          "type": "uint256"
        }
      ],
      "name": "ERC721InsufficientApproval",
      "type": "error"
    },
    {
      "inputs": [
        {
          "internalType": "address",
          "name": "approver",
          "type": "address"
        }
      ],
      "name": "ERC721InvalidApprover",
      "type": "error"
    },
    {
      "inputs": [
        {
          "internalType": "address",
          "name": "operator",
          "type": "address"
        }
      ],
      "name": "ERC721InvalidOperator",
      "type": "error"
    },
    {
      "inputs": [
        {
          "internalType": "address",
          "name": "owner",
          "type": "address"
        }
      ],
      "name": "ERC721InvalidOwner",
      "type": "error"
    },
    {
      "inputs": [
        {
          "internalType": "address",
          "name": "receiver",
          "type": "address"
        }
      ],
      "name": "ERC721InvalidReceiver",
      "type": "error"
    },
    {
      "inputs": [
        {
          "internalType": "address",
          "name": "sender",
          "type": "address"
        }
      ],
      "name": "ERC721InvalidSender",
      "type": "error"
    },
    {
      "inputs": [
        {
          "internalType": "uint256",
          "name": "tokenId",
          "type": "uint256"
        }
      ],
      "name": "ERC721NonexistentToken",
      "type": "error"
    },
    {
      "inputs": [
        {
          "internalType": "address",
          "name": "owner",
          "type": "address"
        }
      ],
      "name": "OwnableInvalidOwner",
      "type": "error"
    },
    {
      "inputs": [
        {
          "internalType": "address",
          "name": "account",
          "type": "address"
        }
      ],
      "name": "OwnableUnauthorizedAccount",
      "type": "error"
    },
    {
      "anonymous": false,
      "inputs": [
        {
          "indexed": true,
          "internalType": "address",
          "name": "owner",
          "type": "address"
        },
        {
          "indexed": true,
          "internalType": "address",
          "name": "approved",
          "type": "address"
        },
        {
          "indexed": true,
          "internalType": "uint256",
          "name": "tokenId",
          "type": "uint256"
        }
      ],
      "name": "Approval",
      "type": "event"
    },
    {
      "anonymous": false,
      "inputs": [
        {
          "indexed": true,
          "internalType": "address",
          "name": "owner",
          "type": "address"
        },
        {
          "indexed": true,
          "internalType": "address",
          "name": "operator",
          "type": "address"
        },
        {
          "indexed": false,
          "internalType": "bool",
          "name": "approved",
          "type": "bool"
        }
      ],
      "name": "ApprovalForAll",
      "type": "event"
    },
    {
      "anonymous": false,
      "inputs": [
        {
          "indexed": true,
          "internalType": "uint256",
          "name": "tokenId",
          "type": "uint256"
        },
        {
          "indexed": false,
          "internalType": "uint256",
          "name": "remainingDurability",
          "type": "uint256"
        }
      ],
      "name": "DurabilityUsed",
      "type": "event"
    },
    {
      "anonymous": false,
      "inputs": [
        {
          "indexed": true,
          "internalType": "address",
          "name": "previousOwner",
          "type": "address"
        },
        {
          "indexed": true,
          "internalType": "address",
          "name": "newOwner",
          "type": "address"
        }
      ],
      "name": "OwnershipTransferred",
      "type": "event"
    },
    {
      "anonymous": false,
      "inputs": [
        {
          "indexed": true,
          "internalType": "address",
          "name": "player",
          "type": "address"
        },
        {
          "indexed": false,
          "internalType": "uint256",
          "name": "tokenId",
          "type": "uint256"
        },
        {
          "indexed": false,
          "internalType": "enum PickaxeNFTV2.Tier",
          "name": "tier",
          "type": "uint8"
        }
      ],
      "name": "PickaxeMinted",
      "type": "event"
    },
    {
      "anonymous": false,
      "inputs": [
        {
          "indexed": true,
          "internalType": "uint256",
          "name": "tokenId",
          "type": "uint256"
        },
        {
          "indexed": false,
          "internalType": "uint256",
          "name": "newDurability",
          "type": "uint256"
        }
      ],
      "name": "PickaxeRepaired",
      "type": "event"
    },
    {
      "anonymous": false,
      "inputs": [
        {
          "indexed": true,
          "internalType": "address",
          "name": "player",
          "type": "address"
        },
        {
          "indexed": false,
          "internalType": "uint256",
          "name": "oldTokenId",
          "type": "uint256"
        },
        {
          "indexed": false,
          "internalType": "uint256",
          "name": "newTokenId",
          "type": "uint256"
        },
        {
          "indexed": false,
          "internalType": "enum PickaxeNFTV2.Tier",
          "name": "newTier",
          "type": "uint8"
        }
      ],
      "name": "PickaxeUpgraded",
      "type": "event"
    },
    {
      "anonymous": false,
      "inputs": [
        {
          "indexed": true,
          "internalType": "address",
          "name": "from",
          "type": "address"
        },
        {
          "indexed": true,
          "internalType": "address",
          "name": "to",
          "type": "address"
        },
        {
          "indexed": true,
          "internalType": "uint256",
          "name": "tokenId",
          "type": "uint256"
        }
      ],
      "name": "Transfer",
      "type": "event"
    },
    {
      "inputs": [
        {
          "internalType": "address",
          "name": "to",
          "type": "address"
        },
        {
          "internalType": "uint256",
          "name": "tokenId",
          "type": "uint256"
        }
      ],
      "name": "approve",
      "outputs": [],
      "stateMutability": "nonpayable",
      "type": "function"
    },
    {
      "inputs": [
        {
          "internalType": "address",
          "name": "owner",
          "type": "address"
        }
      ],
      "name": "balanceOf",
      "outputs": [
        {
          "internalType": "uint256",
          "name": "",
          "type": "uint256"
        }
      ],
      "stateMutability": "view",
      "type": "function"
    },
    {
      "inputs": [
        {
          "internalType": "enum PickaxeNFTV2.Tier",
          "name": "tier",
          "type": "uint8"
        }
      ],
      "name": "buyPickaxe",
      "outputs": [],
      "stateMutability": "nonpayable",
      "type": "function"
    },
    {
      "inputs": [],
      "name": "gameContract",
      "outputs": [
        {
          "internalType": "address",
          "name": "",
          "type": "address"
        }
      ],
      "stateMutability": "view",
      "type": "function"
    },
    {
      "inputs": [
        {
          "internalType": "uint256",
          "name": "tokenId",
          "type": "uint256"
        }
      ],
      "name": "getApproved",
      "outputs": [
        {
          "internalType": "address",
          "name": "",
          "type": "address"
        }
      ],
      "stateMutability": "view",
      "type": "function"
    },
    {
      "inputs": [
        {
          "internalType": "address",
          "name": "player",
          "type": "address"
        }
      ],
      "name": "getPlayerPickaxe",
      "outputs": [
        {
          "internalType": "uint256",
          "name": "tokenId",
          "type": "uint256"
        },
        {
          "internalType": "enum PickaxeNFTV2.Tier",
          "name": "tier",
          "type": "uint8"
        },
        {
          "internalType": "uint256",
          "name": "durability",
          "type": "uint256"
        },
        {
          "internalType": "uint256",
          "name": "maxDurability",
          "type": "uint256"
        }
      ],
      "stateMutability": "view",
      "type": "function"
    },
    {
      "inputs": [
        {
          "internalType": "uint256",
          "name": "tokenId",
          "type": "uint256"
        }
      ],
      "name": "getSpeedMultiplier",
      "outputs": [
        {
          "internalType": "uint256",
          "name": "multiplier",
          "type": "uint256"
        }
      ],
      "stateMutability": "view",
      "type": "function"
    },
    {
      "inputs": [
        {
          "internalType": "enum PickaxeNFTV2.Tier",
          "name": "tier",
          "type": "uint8"
        }
      ],
      "name": "getTierCost",
      "outputs": [
        {
          "internalType": "uint256",
          "name": "cost",
          "type": "uint256"
        }
      ],
      "stateMutability": "view",
      "type": "function"
    },
    {
      "inputs": [
        {
          "internalType": "enum PickaxeNFTV2.Tier",
          "name": "tier",
          "type": "uint8"
        }
      ],
      "name": "getTierName",
      "outputs": [
        {
          "internalType": "string",
          "name": "name",
          "type": "string"
        }
      ],
      "stateMutability": "pure",
      "type": "function"
    },
    {
      "inputs": [],
      "name": "goldToken",
      "outputs": [
        {
          "internalType": "contract GoldToken",
          "name": "",
          "type": "address"
        }
      ],
      "stateMutability": "view",
      "type": "function"
    },
    {
      "inputs": [
        {
          "internalType": "address",
          "name": "player",
          "type": "address"
        }
      ],
      "name": "hasPickaxe",
      "outputs": [
        {
          "internalType": "bool",
          "name": "",
          "type": "bool"
        }
      ],
      "stateMutability": "view",
      "type": "function"
    },
    {
      "inputs": [
        {
          "internalType": "address",
          "name": "owner",
          "type": "address"
        },
        {
          "internalType": "address",
          "name": "operator",
          "type": "address"
        }
      ],
      "name": "isApprovedForAll",
      "outputs": [
        {
          "internalType": "bool",
          "name": "",
          "type": "bool"
        }
      ],
      "stateMutability": "view",
      "type": "function"
    },
    {
      "inputs": [],
      "name": "mintStarter",
      "outputs": [],
      "stateMutability": "nonpayable",
      "type": "function"
    },
    {
      "inputs": [],
      "name": "name",
      "outputs": [
        {
          "internalType": "string",
          "name": "",
          "type": "string"
        }
      ],
      "stateMutability": "view",
      "type": "function"
    },
    {
      "inputs": [],
      "name": "owner",
      "outputs": [
        {
          "internalType": "address",
          "name": "",
          "type": "address"
        }
      ],
      "stateMutability": "view",
      "type": "function"
    },
    {
      "inputs": [
        {
          "internalType": "uint256",
          "name": "tokenId",
          "type": "uint256"
        }
      ],
      "name": "ownerOf",
      "outputs": [
        {
          "internalType": "address",
          "name": "",
          "type": "address"
        }
      ],
      "stateMutability": "view",
      "type": "function"
    },
    {
      "inputs": [
        {
          "internalType": "uint256",
          "name": "",
          "type": "uint256"
        }
      ],
      "name": "pickaxes",
      "outputs": [
        {
          "internalType": "enum PickaxeNFTV2.Tier",
          "name": "tier",
          "type": "uint8"
        },
        {
          "internalType": "uint256",
          "name": "durability",
          "type": "uint256"
        },
        {
          "internalType": "uint256",
          "name": "maxDurability",
          "type": "uint256"
        },
        {
          "internalType": "uint256",
          "name": "mintedAt",
          "type": "uint256"
        }
      ],
      "stateMutability": "view",
      "type": "function"
    },
    {
      "inputs": [
        {
          "internalType": "address",
          "name": "",
          "type": "address"
        }
      ],
      "name": "playerPickaxe",
      "outputs": [
        {
          "internalType": "uint256",
          "name": "",
          "type": "uint256"
        }
      ],
      "stateMutability": "view",
      "type": "function"
    },
    {
      "inputs": [],
      "name": "renounceOwnership",
      "outputs": [],
      "stateMutability": "nonpayable",
      "type": "function"
    },
    {
      "inputs": [
        {
          "internalType": "uint256",
          "name": "tokenId",
          "type": "uint256"
        }
      ],
      "name": "repair",
      "outputs": [],
      "stateMutability": "nonpayable",
      "type": "function"
    },
    {
      "inputs": [
        {
          "internalType": "address",
          "name": "from",
          "type": "address"
        },
        {
          "internalType": "address",
          "name": "to",
          "type": "address"
        },
        {
          "internalType": "uint256",
          "name": "tokenId",
          "type": "uint256"
        }
      ],
      "name": "safeTransferFrom",
      "outputs": [],
      "stateMutability": "nonpayable",
      "type": "function"
    },
    {
      "inputs": [
        {
          "internalType": "address",
          "name": "from",
          "type": "address"
        },
        {
          "internalType": "address",
          "name": "to",
          "type": "address"
        },
        {
          "internalType": "uint256",
          "name": "tokenId",
          "type": "uint256"
        },
        {
          "internalType": "bytes",
          "name": "data",
          "type": "bytes"
        }
      ],
      "name": "safeTransferFrom",
      "outputs": [],
      "stateMutability": "nonpayable",
      "type": "function"
    },
    {
      "inputs": [
        {
          "internalType": "address",
          "name": "operator",
          "type": "address"
        },
        {
          "internalType": "bool",
          "name": "approved",
          "type": "bool"
        }
      ],
      "name": "setApprovalForAll",
      "outputs": [],
      "stateMutability": "nonpayable",
      "type": "function"
    },
    {
      "inputs": [
        {
          "internalType": "address",
          "name": "_gameContract",
          "type": "address"
        }
      ],
      "name": "setGameContract",
      "outputs": [],
      "stateMutability": "nonpayable",
      "type": "function"
    },
    {
      "inputs": [
        {
          "internalType": "bytes4",
          "name": "interfaceId",
          "type": "bytes4"
        }
      ],
      "name": "supportsInterface",
      "outputs": [
        {
          "internalType": "bool",
          "name": "",
          "type": "bool"
        }
      ],
      "stateMutability": "view",
      "type": "function"
    },
    {
      "inputs": [],
      "name": "symbol",
      "outputs": [
        {
          "internalType": "string",
          "name": "",
          "type": "string"
        }
      ],
      "stateMutability": "view",
      "type": "function"
    },
    {
      "inputs": [
        {
          "internalType": "uint256",
          "name": "",
          "type": "uint256"
        }
      ],
      "name": "tierCosts",
      "outputs": [
        {
          "internalType": "uint256",
          "name": "",
          "type": "uint256"
        }
      ],
      "stateMutability": "view",
      "type": "function"
    },
    {
      "inputs": [
        {
          "internalType": "uint256",
          "name": "",
          "type": "uint256"
        }
      ],
      "name": "tierDurability",
      "outputs": [
        {
          "internalType": "uint256",
          "name": "",
          "type": "uint256"
        }
      ],
      "stateMutability": "view",
      "type": "function"
    },
    {
      "inputs": [
        {
          "internalType": "uint256",
          "name": "tokenId",
          "type": "uint256"
        }
      ],
      "name": "tokenURI",
      "outputs": [
        {
          "internalType": "string",
          "name": "",
          "type": "string"
        }
      ],
      "stateMutability": "view",
      "type": "function"
    },
    {
      "inputs": [
        {
          "internalType": "address",
          "name": "from",
          "type": "address"
        },
        {
          "internalType": "address",
          "name": "to",
          "type": "address"
        },
        {
          "internalType": "uint256",
          "name": "tokenId",
          "type": "uint256"
        }
      ],
      "name": "transferFrom",
      "outputs": [],
      "stateMutability": "nonpayable",
      "type": "function"
    },
    {
      "inputs": [
        {
          "internalType": "address",
          "name": "newOwner",
          "type": "address"
        }
      ],
      "name": "transferOwnership",
      "outputs": [],
      "stateMutability": "nonpayable",
      "type": "function"
    },
    {
      "inputs": [
        {
          "internalType": "uint256",
          "name": "tokenId",
          "type": "uint256"
        }
      ],
      "name": "useDurability",
      "outputs": [],
      "stateMutability": "nonpayable",
      "type": "function"
    },
    {
      "inputs": [],
      "name": "withdrawGLD",
      "outputs": [],
      "stateMutability": "nonpayable",
      "type": "function"
    }
  ],
  "bytecode": "0x608060405260016009553480156200001657600080fd5b506040516200263738038062002637833981016040819052620000399162000205565b3360405180604001604052806011815260200170526f636b636861696e205069636b61786560781b815250604051806040016040528060048152602001635049434b60e01b8152508160009081620000929190620002dc565b506001620000a18282620002dc565b5050506001600160a01b038116620000d457604051631e4fbdf760e01b8152600060048201526024015b60405180910390fd5b620000df81620001b3565b506001600160a01b038116620001385760405162461bcd60e51b815260206004820152601560248201527f496e76616c696420746f6b656e206164647265737300000000000000000000006044820152606401620000cb565b600780546001600160a01b0319166001600160a01b03929092169190911790556000600c55681b1ae4d6e2ef500000600d55685150ae84a8cdf00000600e5569014542ba12a337c00000600f5569043c33c19375648000006010556064601155609660125560c860135560fa60145561012c601555620003a8565b600680546001600160a01b038381166001600160a01b0319831681179093556040519116919082907f8be0079c531659141344cd1fd0a4f28419497f9722a3daafe3b4186f6b6457e090600090a35050565b6000602082840312156200021857600080fd5b81516001600160a01b03811681146200023057600080fd5b9392505050565b634e487b7160e01b600052604160045260246000fd5b600181811c908216806200026257607f821691505b6020821081036200028357634e487b7160e01b600052602260045260246000fd5b50919050565b601f821115620002d757600081815260208120601f850160051c81016020861015620002b25750805b601f850160051c820191505b81811015620002d357828155600101620002be565b5050505b505050565b81516001600160401b03811115620002f857620002f862000237565b62000310816200030984546200024d565b8462000289565b602080601f8311600181146200034857600084156200032f5750858301515b600019600386901b1c1916600185901b178555620002d3565b600085815260208120601f198616915b82811015620003795788860151825594840194600190910190840162000358565b5085821015620003985787850151600019600388901b60f8161c191681555b5050505050600190811b01905550565b61227f80620003b86000396000f3fe608060405234801561001057600080fd5b50600436106101fb5760003560e01c8063934ead931161011a578063c87b56dd116100ad578063e1fe8b411161007c578063e1fe8b4114610483578063e64bd5931461048b578063e985e9c51461049e578063f2fde38b146104b1578063f86a3c93146104c457600080fd5b8063c87b56dd14610442578063ca405e9a14610455578063d2472cb614610468578063d3f330091461047057600080fd5b806399e86c4b116100e957806399e86c4b146103f65780639f12f87914610409578063a22cb4651461041c578063b88d4fde1461042f57600080fd5b8063934ead931461037f57806393c5dc5b146103c857806394002b57146103db57806395d89b41146103ee57600080fd5b80636352211e11610192578063715018a611610161578063715018a61461034057806379c7b47f146103485780637e08bf031461035b5780638da5cb5b1461036e57600080fd5b80636352211e146102e457806368a1a8c6146102f75780636dbbe6891461030a57806370a082311461032d57600080fd5b8063095ea7b3116101ce578063095ea7b31461029657806323b872dd146102ab578063405ebd4d146102be57806342842e0e146102d157600080fd5b806301ffc9a71461020057806306acb8c71461022857806306fdde0314610256578063081812fc1461026b575b600080fd5b61021361020e366004611d4d565b6104ef565b60405190151581526020015b60405180910390f35b610248610236366004611d86565b600b6020526000908152604090205481565b60405190815260200161021f565b61025e610541565b60405161021f9190611df1565b61027e610279366004611e04565b6105d3565b6040516001600160a01b03909116815260200161021f565b6102a96102a4366004611e1d565b6105fc565b005b6102a96102b9366004611e47565b61060b565b6102a96102cc366004611d86565b61069b565b6102a96102df366004611e47565b610713565b61027e6102f2366004611e04565b610733565b6102a9610305366004611e04565b61073e565b61031d610318366004611d86565b610962565b60405161021f9493929190611ebb565b61024861033b366004611d86565b610a3f565b6102a9610a87565b6102a9610356366004611ee1565b610a9b565b610248610369366004611e04565b610cc7565b6006546001600160a01b031661027e565b6103b861038d366004611e04565b600a60205260009081526040902080546001820154600283015460039093015460ff90921692909184565b60405161021f9493929190611f02565b6102a96103d6366004611e04565b610cde565b60075461027e906001600160a01b031681565b61025e610e15565b610248610404366004611e04565b610e24565b610248610417366004611ee1565b610e34565b6102a961042a366004611f39565b610eb2565b6102a961043d366004611f86565b610ebd565b61025e610450366004611e04565b610ed5565b610248610463366004611e04565b610f4a565b6102a961106b565b60085461027e906001600160a01b031681565b6102a96111d7565b61025e610499366004611ee1565b611235565b6102136104ac366004612062565b611383565b6102a96104bf366004611d86565b6113b1565b6102136104d2366004611d86565b6001600160a01b03166000908152600b6020526040902054151590565b60006001600160e01b031982166380ac58cd60e01b148061052057506001600160e01b03198216635b5e139f60e01b145b8061053b57506301ffc9a760e01b6001600160e01b03198316145b92915050565b60606000805461055090612095565b80601f016020809104026020016040519081016040528092919081815260200182805461057c90612095565b80156105c95780601f1061059e576101008083540402835291602001916105c9565b820191906000526020600020905b8154815290600101906020018083116105ac57829003601f168201915b5050505050905090565b60006105de826113ec565b506000828152600460205260409020546001600160a01b031661053b565b610607828233611425565b5050565b6001600160a01b03821661063a57604051633250574960e11b8152600060048201526024015b60405180910390fd5b6000610647838333611432565b9050836001600160a01b0316816001600160a01b031614610695576040516364283d7b60e01b81526001600160a01b0380861660048301526024820184905282166044820152606401610631565b50505050565b6106a36114f2565b6001600160a01b0381166106f15760405162461bcd60e51b8152602060048201526015602482015274125b9d985b1a590819d85b594818dbdb9d1c9858dd605a1b6044820152606401610631565b600880546001600160a01b0319166001600160a01b0392909216919091179055565b61072e83838360405180602001604052806000815250610ebd565b505050565b600061053b826113ec565b3361074882610733565b6001600160a01b03161461078a5760405162461bcd60e51b81526020600482015260096024820152682737ba1037bbb732b960b91b6044820152606401610631565b6000818152600a602081905260408220805490929190600c9060ff1660048111156107b7576107b7611e83565b600581106107c7576107c76120cf565b01546107d391906120fb565b6007546040516370a0823160e01b815233600482015291925082916001600160a01b03909116906370a0823190602401602060405180830381865afa158015610820573d6000803e3d6000fd5b505050506040513d601f19601f82011682018060405250810190610844919061211d565b10156108855760405162461bcd60e51b815260206004820152601060248201526f125b9cdd59999a58da595b9d0811d31160821b6044820152606401610631565b6007546040516323b872dd60e01b8152336004820152306024820152604481018390526001600160a01b03909116906323b872dd906064016020604051808303816000875af11580156108dc573d6000803e3d6000fd5b505050506040513d601f19601f820116820180604052508101906109009190612136565b61091c5760405162461bcd60e51b815260040161063190612153565b60028201546001830181905560405190815283907fb376e5eb57f9b3cb88af73cc88bed923b449e2d0fdd265dabbf1d650c698c9919060200160405180910390a2505050565b6001600160a01b0381166000908152600b60205260408120549080808381036109ba5760405162461bcd60e51b815260206004820152600a6024820152694e6f207069636b61786560b01b6044820152606401610631565b6000848152600a60205260408082208151608081019092528054829060ff1660048111156109ea576109ea611e83565b60048111156109fb576109fb611e83565b815260200160018201548152602001600282015481526020016003820154815250509050848160000151826020015183604001519450945094509450509193509193565b60006001600160a01b038216610a6b576040516322718ad960e21b815260006004820152602401610631565b506001600160a01b031660009081526003602052604090205490565b610a8f6114f2565b610a99600061151f565b565b6000816004811115610aaf57610aaf611e83565b11610afc5760405162461bcd60e51b815260206004820152601a60248201527f557365206d696e745374617274657220666f7220776f6f64656e0000000000006044820152606401610631565b6005816004811115610b1057610b10611e83565b10610b4c5760405162461bcd60e51b815260206004820152600c60248201526b24b73b30b634b2103a34b2b960a11b6044820152606401610631565b6000600c826004811115610b6257610b62611e83565b60058110610b7257610b726120cf565b01546007546040516370a0823160e01b815233600482015291925082916001600160a01b03909116906370a0823190602401602060405180830381865afa158015610bc1573d6000803e3d6000fd5b505050506040513d601f19601f82011682018060405250810190610be5919061211d565b1015610c265760405162461bcd60e51b815260206004820152601060248201526f125b9cdd59999a58da595b9d0811d31160821b6044820152606401610631565b6007546040516323b872dd60e01b8152336004820152306024820152604481018390526001600160a01b03909116906323b872dd906064016020604051808303816000875af1158015610c7d573d6000803e3d6000fd5b505050506040513d601f19601f82011682018060405250810190610ca19190612136565b610cbd5760405162461bcd60e51b815260040161063190612153565b6106073383611571565b600c8160058110610cd757600080fd5b0154905081565b6008546001600160a01b03163314610d2d5760405162461bcd60e51b815260206004820152601260248201527113db9b1e4811d85b594818dbdb9d1c9858dd60721b6044820152606401610631565b6000818152600260205260409020546001600160a01b0316610d885760405162461bcd60e51b8152602060048201526014602482015273151bdad95b88191bd95cc81b9bdd08195e1a5cdd60621b6044820152606401610631565b6000818152600a602052604090206001015415610e12576000818152600a60205260408120600101805491610dbc8361217c565b9190505550807fb1b7a054523ed83e167047c329ee8aca19e2eb5371424e9a99435df37f0acb4e600a600084815260200190815260200160002060010154604051610e0991815260200190565b60405180910390a25b50565b60606001805461055090612095565b60118160058110610cd757600080fd5b60006005826004811115610e4a57610e4a611e83565b10610e865760405162461bcd60e51b815260206004820152600c60248201526b24b73b30b634b2103a34b2b960a11b6044820152606401610631565b600c826004811115610e9a57610e9a611e83565b60058110610eaa57610eaa6120cf565b015492915050565b6106073383836116a2565b610ec884848461060b565b6106953385858585611741565b6060610ee0826113ec565b506000610ef860408051602081019091526000815290565b90506000815111610f185760405180602001604052806000815250610f43565b80610f228461186c565b604051602001610f33929190612193565b6040516020818303038152906040525b9392505050565b6000818152600a6020526040808220815160808101909252805483929190829060ff166004811115610f7e57610f7e611e83565b6004811115610f8f57610f8f611e83565b815260018201546020820152600282015460408201526003909101546060909101529050600081516004811115610fc857610fc8611e83565b03610fd65750606492915050565b600181516004811115610feb57610feb611e83565b03610ff95750605092915050565b60028151600481111561100e5761100e611e83565b0361101c5750604192915050565b60038151600481111561103157611031611e83565b0361103f5750603292915050565b60048151600481111561105457611054611e83565b036110625750602392915050565b50606492915050565b6110736114f2565b6007546040516370a0823160e01b81523060048201526000916001600160a01b0316906370a0823190602401602060405180830381865afa1580156110bc573d6000803e3d6000fd5b505050506040513d601f19601f820116820180604052508101906110e0919061211d565b9050600081116111275760405162461bcd60e51b81526020600482015260126024820152714e6f20474c4420746f20776974686472617760701b6044820152606401610631565b6007546001600160a01b031663a9059cbb61114a6006546001600160a01b031690565b6040516001600160e01b031960e084901b1681526001600160a01b039091166004820152602481018490526044016020604051808303816000875af1158015611197573d6000803e3d6000fd5b505050506040513d601f19601f820116820180604052508101906111bb9190612136565b610e125760405162461bcd60e51b815260040161063190612153565b336000908152600b60205260409020541561122a5760405162461bcd60e51b8152602060048201526013602482015272416c726561647920686173207069636b61786560681b6044820152606401610631565b610a99336000611571565b6060600082600481111561124b5761124b611e83565b036112725750506040805180820190915260068152652bb7b7b232b760d11b602082015290565b600182600481111561128657611286611e83565b036112ab57505060408051808201909152600481526324b937b760e11b602082015290565b60028260048111156112bf576112bf611e83565b036112e557505060408051808201909152600581526414dd19595b60da1b602082015290565b60038260048111156112f9576112f9611e83565b03611321575050604080518082019091526007815266135e5d1a1c9a5b60ca1b602082015290565b600482600481111561133557611335611e83565b0361136057505060408051808201909152600a8152694164616d616e7469746560b01b602082015290565b50506040805180820190915260078152662ab735b737bbb760c91b602082015290565b6001600160a01b03918216600090815260056020908152604080832093909416825291909152205460ff1690565b6113b96114f2565b6001600160a01b0381166113e357604051631e4fbdf760e01b815260006004820152602401610631565b610e128161151f565b6000818152600260205260408120546001600160a01b03168061053b57604051637e27328960e01b815260048101849052602401610631565b61072e83838360016118ff565b6000828152600260205260408120546001600160a01b0316801580159061147057506001600160a01b0381166000908152600b602052604090205484145b1561148f576001600160a01b0381166000908152600b60205260408120555b6001600160a01b038516158015906114bd57506001600160a01b0385166000908152600b6020526040902054155b156114de576001600160a01b0385166000908152600b602052604090208490555b6114e9858585611a05565b95945050505050565b6006546001600160a01b03163314610a995760405163118cdaa760e01b8152336004820152602401610631565b600680546001600160a01b038381166001600160a01b0319831681179093556040519116919082907f8be0079c531659141344cd1fd0a4f28419497f9722a3daafe3b4186f6b6457e090600090a35050565b6009805460009182611582836121c2565b9190505590506115928382611afe565b600060118360048111156115a8576115a8611e83565b600581106115b8576115b86120cf565b0154905060405180608001604052808460048111156115d9576115d9611e83565b815260208082018490526040808301859052426060909301929092526000858152600a9091522081518154829060ff1916600183600481111561161e5761161e611e83565b0217905550602082810151600183015560408084015160028401556060909301516003909201919091556001600160a01b0386166000818152600b9092529082902084905590517f28e1160fcd39dfc91931577b0601c091fd2da13b94bdebefe9d7c47dc0d1206d9061169490859087906121db565b60405180910390a250505050565b6001600160a01b0382166116d457604051630b61174360e31b81526001600160a01b0383166004820152602401610631565b6001600160a01b03838116600081815260056020908152604080832094871680845294825291829020805460ff191686151590811790915591519182527f17307eab39ab6107e8899845ad3d59bd9653f200f220920489ca2b5937696c31910160405180910390a3505050565b6001600160a01b0383163b1561186557604051630a85bd0160e11b81526001600160a01b0384169063150b7a02906117839088908890879087906004016121ef565b6020604051808303816000875af19250505080156117be575060408051601f3d908101601f191682019092526117bb9181019061222c565b60015b611827573d8080156117ec576040519150601f19603f3d011682016040523d82523d6000602084013e6117f1565b606091505b50805160000361181f57604051633250574960e11b81526001600160a01b0385166004820152602401610631565b805160208201fd5b6001600160e01b03198116630a85bd0160e11b1461186357604051633250574960e11b81526001600160a01b0385166004820152602401610631565b505b5050505050565b6060600061187983611b18565b600101905060008167ffffffffffffffff81111561189957611899611f70565b6040519080825280601f01601f1916602001820160405280156118c3576020820181803683370190505b5090508181016020015b600019016f181899199a1a9b1b9c1cb0b131b232b360811b600a86061a8153600a85049450846118cd57509392505050565b808061191357506001600160a01b03821615155b156119d5576000611923846113ec565b90506001600160a01b0383161580159061194f5750826001600160a01b0316816001600160a01b031614155b801561196257506119608184611383565b155b1561198b5760405163a9fbf51f60e01b81526001600160a01b0384166004820152602401610631565b81156119d35783856001600160a01b0316826001600160a01b03167f8c5be1e5ebec7d5bd14f71427d1e84f3dd0314c0f7b2291e5b200ac8c7c3b92560405160405180910390a45b505b5050600090815260046020526040902080546001600160a01b0319166001600160a01b0392909216919091179055565b6000828152600260205260408120546001600160a01b0390811690831615611a3257611a32818486611bf0565b6001600160a01b03811615611a7057611a4f6000856000806118ff565b6001600160a01b038116600090815260036020526040902080546000190190555b6001600160a01b03851615611a9f576001600160a01b0385166000908152600360205260409020805460010190555b60008481526002602052604080822080546001600160a01b0319166001600160a01b0389811691821790925591518793918516917fddf252ad1be2c89b69c2b068fc378daa952ba7f163c4a11628f55a4df523b3ef91a4949350505050565b610607828260405180602001604052806000815250611c54565b60008072184f03e93ff9f4daa797ed6e38ed64bf6a1f0160401b8310611b575772184f03e93ff9f4daa797ed6e38ed64bf6a1f0160401b830492506040015b6d04ee2d6d415b85acef81000000008310611b83576d04ee2d6d415b85acef8100000000830492506020015b662386f26fc100008310611ba157662386f26fc10000830492506010015b6305f5e1008310611bb9576305f5e100830492506008015b6127108310611bcd57612710830492506004015b60648310611bdf576064830492506002015b600a831061053b5760010192915050565b611bfb838383611c6c565b61072e576001600160a01b038316611c2957604051637e27328960e01b815260048101829052602401610631565b60405163177e802f60e01b81526001600160a01b038316600482015260248101829052604401610631565b611c5e8383611cd2565b61072e336000858585611741565b60006001600160a01b03831615801590611cca5750826001600160a01b0316846001600160a01b03161480611ca65750611ca68484611383565b80611cca57506000828152600460205260409020546001600160a01b038481169116145b949350505050565b6001600160a01b038216611cfc57604051633250574960e11b815260006004820152602401610631565b6000611d0a83836000611432565b90506001600160a01b0381161561072e576040516339e3563760e11b815260006004820152602401610631565b6001600160e01b031981168114610e1257600080fd5b600060208284031215611d5f57600080fd5b8135610f4381611d37565b80356001600160a01b0381168114611d8157600080fd5b919050565b600060208284031215611d9857600080fd5b610f4382611d6a565b60005b83811015611dbc578181015183820152602001611da4565b50506000910152565b60008151808452611ddd816020860160208601611da1565b601f01601f19169290920160200192915050565b602081526000610f436020830184611dc5565b600060208284031215611e1657600080fd5b5035919050565b60008060408385031215611e3057600080fd5b611e3983611d6a565b946020939093013593505050565b600080600060608486031215611e5c57600080fd5b611e6584611d6a565b9250611e7360208501611d6a565b9150604084013590509250925092565b634e487b7160e01b600052602160045260246000fd5b60058110611eb757634e487b7160e01b600052602160045260246000fd5b9052565b84815260808101611ecf6020830186611e99565b60408201939093526060015292915050565b600060208284031215611ef357600080fd5b813560058110610f4357600080fd5b60808101611f108287611e99565b84602083015283604083015282606083015295945050505050565b8015158114610e1257600080fd5b60008060408385031215611f4c57600080fd5b611f5583611d6a565b91506020830135611f6581611f2b565b809150509250929050565b634e487b7160e01b600052604160045260246000fd5b60008060008060808587031215611f9c57600080fd5b611fa585611d6a565b9350611fb360208601611d6a565b925060408501359150606085013567ffffffffffffffff80821115611fd757600080fd5b818701915087601f830112611feb57600080fd5b813581811115611ffd57611ffd611f70565b604051601f8201601f19908116603f0116810190838211818310171561202557612025611f70565b816040528281528a602084870101111561203e57600080fd5b82602086016020830137600060208483010152809550505050505092959194509250565b6000806040838503121561207557600080fd5b61207e83611d6a565b915061208c60208401611d6a565b90509250929050565b600181811c908216806120a957607f821691505b6020821081036120c957634e487b7160e01b600052602260045260246000fd5b50919050565b634e487b7160e01b600052603260045260246000fd5b634e487b7160e01b600052601160045260246000fd5b60008261211857634e487b7160e01b600052601260045260246000fd5b500490565b60006020828403121561212f57600080fd5b5051919050565b60006020828403121561214857600080fd5b8151610f4381611f2b565b6020808252600f908201526e151c985b9cd9995c8819985a5b1959608a1b604082015260600190565b60008161218b5761218b6120e5565b506000190190565b600083516121a5818460208801611da1565b8351908301906121b9818360208801611da1565b01949350505050565b6000600182016121d4576121d46120e5565b5060010190565b82815260408101610f436020830184611e99565b6001600160a01b038581168252841660208201526040810183905260806060820181905260009061222290830184611dc5565b9695505050505050565b60006020828403121561223e57600080fd5b8151610f4381611d3756fea26469706673582212206f8794bc71fe34dbfab586628cd12710d7c1a49b136b74538fa8e0f71132436064736f6c63430008140033",
  "linkReferences": {},
  "deployedLinkReferences": {}
}